{
	"data": {
		"bytecode": {
			"linkReferences": {},
			"object": "60806040526003600b556000600c60006101000a81548160ff0219169083151502179055506000600c60016101000a81548160ff0219169083151502179055503480156200004c57600080fd5b506040518060400160405280600981526020017f4e4654467269656e6400000000000000000000000000000000000000000000008152506040518060400160405280600481526020017f4e465446000000000000000000000000000000000000000000000000000000008152508160009081620000ca919062000468565b508060019081620000dc919062000468565b5050506000600a60006101000a81548160ff0219169083151502179055506200011a6200010e6200012060201b60201c565b6200012860201b60201c565b6200054f565b600033905090565b6000600a60019054906101000a900473ffffffffffffffffffffffffffffffffffffffff16905081600a60016101000a81548173ffffffffffffffffffffffffffffffffffffffff021916908373ffffffffffffffffffffffffffffffffffffffff1602179055508173ffffffffffffffffffffffffffffffffffffffff168173ffffffffffffffffffffffffffffffffffffffff167f8be0079c531659141344cd1fd0a4f28419497f9722a3daafe3b4186f6b6457e060405160405180910390a35050565b600081519050919050565b7f4e487b7100000000000000000000000000000000000000000000000000000000600052604160045260246000fd5b7f4e487b7100000000000000000000000000000000000000000000000000000000600052602260045260246000fd5b600060028204905060018216806200027057607f821691505b60208210810362000286576200028562000228565b5b50919050565b60008190508160005260206000209050919050565b60006020601f8301049050919050565b600082821b905092915050565b600060088302620002f07fffffffffffffffffffffffffffffffffffffffffffffffffffffffffffffffff82620002b1565b620002fc8683620002b1565b95508019841693508086168417925050509392505050565b6000819050919050565b6000819050919050565b600062000349620003436200033d8462000314565b6200031e565b62000314565b9050919050565b6000819050919050565b620003658362000328565b6200037d620003748262000350565b848454620002be565b825550505050565b600090565b6200039462000385565b620003a18184846200035a565b505050565b5b81811015620003c957620003bd6000826200038a565b600181019050620003a7565b5050565b601f8211156200041857620003e2816200028c565b620003ed84620002a1565b81016020851015620003fd578190505b620004156200040c85620002a1565b830182620003a6565b50505b505050565b600082821c905092915050565b60006200043d600019846008026200041d565b1980831691505092915050565b60006200045883836200042a565b9150826002028217905092915050565b6200047382620001ee565b67ffffffffffffffff8111156200048f576200048e620001f9565b5b6200049b825462000257565b620004a8828285620003cd565b600060209050601f831160018114620004e05760008415620004cb578287015190505b620004d785826200044a565b86555062000547565b601f198416620004f0866200028c565b60005b828110156200051a57848901518255600182019150602085019450602081019050620004f3565b868310156200053a578489015162000536601f8916826200042a565b8355505b6001600288020188555050505b505050505050565b613d55806200055f6000396000f3fe6080604052600436106101b75760003560e01c80636352211e116100ec578063a22cb4651161008a578063c87b56dd11610064578063c87b56dd146105b6578063d7949118146105f3578063e985e9c51461061c578063f2fde38b14610659576101b7565b8063a22cb46514610527578063a7cd52cb14610550578063b88d4fde1461058d576101b7565b80638456cb59116100c65780638456cb59146104915780638da5cb5b146104a857806390ce7254146104d357806395d89b41146104fc576101b7565b80636352211e1461040057806370a082311461043d578063715018a61461047a576101b7565b806326092b831161015957806342842e0e1161013357806342842e0e146103465780634f6ccce71461036f57806351cff8d9146103ac5780635c975abb146103d5576101b7565b806326092b83146102e85780632f745c59146102f25780633f4ba83a1461032f576101b7565b8063095ea7b311610195578063095ea7b314610261578063102a6a731461028a57806318160ddd1461029457806323b872dd146102bf576101b7565b806301ffc9a7146101bc57806306fdde03146101f9578063081812fc14610224575b600080fd5b3480156101c857600080fd5b506101e360048036038101906101de91906128e9565b610682565b6040516101f09190612931565b60405180910390f35b34801561020557600080fd5b5061020e610694565b60405161021b91906129dc565b60405180910390f35b34801561023057600080fd5b5061024b60048036038101906102469190612a34565b610726565b6040516102589190612aa2565b60405180910390f35b34801561026d57600080fd5b5061028860048036038101906102839190612ae9565b61076c565b005b610292610883565b005b3480156102a057600080fd5b506102a96109b1565b6040516102b69190612b38565b60405180910390f35b3480156102cb57600080fd5b506102e660048036038101906102e19190612b53565b6109be565b005b6102f0610a1e565b005b3480156102fe57600080fd5b5061031960048036038101906103149190612ae9565b610ac1565b6040516103269190612b38565b60405180910390f35b34801561033b57600080fd5b50610344610b66565b005b34801561035257600080fd5b5061036d60048036038101906103689190612b53565b610b78565b005b34801561037b57600080fd5b5061039660048036038101906103919190612a34565b610b98565b6040516103a39190612b38565b60405180910390f35b3480156103b857600080fd5b506103d360048036038101906103ce9190612ba6565b610c09565b005b3480156103e157600080fd5b506103ea610c61565b6040516103f79190612931565b60405180910390f35b34801561040c57600080fd5b5061042760048036038101906104229190612a34565b610c78565b6040516104349190612aa2565b60405180910390f35b34801561044957600080fd5b50610464600480360381019061045f9190612ba6565b610cfe565b6040516104719190612b38565b60405180910390f35b34801561048657600080fd5b5061048f610db5565b005b34801561049d57600080fd5b506104a6610dc9565b005b3480156104b457600080fd5b506104bd610ddb565b6040516104ca9190612aa2565b60405180910390f35b3480156104df57600080fd5b506104fa60048036038101906104f59190612bff565b610e05565b005b34801561050857600080fd5b50610511610e45565b60405161051e91906129dc565b60405180910390f35b34801561053357600080fd5b5061054e60048036038101906105499190612c3f565b610ed7565b005b34801561055c57600080fd5b5061057760048036038101906105729190612ba6565b610eed565b6040516105849190612931565b60405180910390f35b34801561059957600080fd5b506105b460048036038101906105af9190612db4565b610f0d565b005b3480156105c257600080fd5b506105dd60048036038101906105d89190612a34565b610f6f565b6040516105ea91906129dc565b60405180910390f35b3480156105ff57600080fd5b5061061a60048036038101906106159190612e97565b610fd7565b005b34801561062857600080fd5b50610643600480360381019061063e9190612ee4565b611084565b6040516106509190612931565b60405180910390f35b34801561066557600080fd5b50610680600480360381019061067b9190612ba6565b611118565b005b600061068d8261119b565b9050919050565b6060600080546106a390612f53565b80601f01602080910402602001604051908101604052809291908181526020018280546106cf90612f53565b801561071c5780601f106106f15761010080835404028352916020019161071c565b820191906000526020600020905b8154815290600101906020018083116106ff57829003601f168201915b5050505050905090565b600061073182611215565b6004600083815260200190815260200160002060009054906101000a900473ffffffffffffffffffffffffffffffffffffffff169050919050565b600061077782610c78565b90508073ffffffffffffffffffffffffffffffffffffffff168373ffffffffffffffffffffffffffffffffffffffff16036107e7576040517f08c379a00000000000000000000000000000000000000000000000000000000081526004016107de90612ff6565b60405180910390fd5b8073ffffffffffffffffffffffffffffffffffffffff16610806611260565b73ffffffffffffffffffffffffffffffffffffffff16148061083557506108348161082f611260565b611084565b5b610874576040517f08c379a000000000000000000000000000000000000000000000000000000000815260040161086b90613088565b60405180910390fd5b61087e8383611268565b505050565b662386f26fc1000034146108cc576040517f08c379a00000000000000000000000000000000000000000000000000000000081526004016108c3906130f4565b60405180910390fd5b600c60019054906101000a900460ff1661091b576040517f08c379a000000000000000000000000000000000000000000000000000000000815260040161091290613160565b60405180910390fd5b600d60003373ffffffffffffffffffffffffffffffffffffffff1673ffffffffffffffffffffffffffffffffffffffff16815260200190815260200160002060009054906101000a900460ff166109a7576040517f08c379a000000000000000000000000000000000000000000000000000000000815260040161099e906131cc565b60405180910390fd5b6109af611321565b565b6000600880549050905090565b6109cf6109c9611260565b82611391565b610a0e576040517f08c379a0000000000000000000000000000000000000000000000000000000008152600401610a059061325e565b60405180910390fd5b610a19838383611426565b505050565b67016345785d8a00003414610a68576040517f08c379a0000000000000000000000000000000000000000000000000000000008152600401610a5f906130f4565b60405180910390fd5b600c60009054906101000a900460ff16610ab7576040517f08c379a0000000000000000000000000000000000000000000000000000000008152600401610aae90613160565b60405180910390fd5b610abf611321565b565b6000610acc83610cfe565b8210610b0d576040517f08c379a0000000000000000000000000000000000000000000000000000000008152600401610b04906132f0565b60405180910390fd5b600660008473ffffffffffffffffffffffffffffffffffffffff1673ffffffffffffffffffffffffffffffffffffffff168152602001908152602001600020600083815260200190815260200160002054905092915050565b610b6e61171f565b610b7661179d565b565b610b9383838360405180602001604052806000815250610f0d565b505050565b6000610ba26109b1565b8210610be3576040517f08c379a0000000000000000000000000000000000000000000000000000000008152600401610bda90613382565b60405180910390fd5b60088281548110610bf757610bf66133a2565b5b90600052602060002001549050919050565b610c1161171f565b60004790508173ffffffffffffffffffffffffffffffffffffffff166108fc829081150290604051600060405180830381858888f19350505050158015610c5c573d6000803e3d6000fd5b505050565b6000600a60009054906101000a900460ff16905090565b600080610c8483611800565b9050600073ffffffffffffffffffffffffffffffffffffffff168173ffffffffffffffffffffffffffffffffffffffff1603610cf5576040517f08c379a0000000000000000000000000000000000000000000000000000000008152600401610cec9061341d565b60405180910390fd5b80915050919050565b60008073ffffffffffffffffffffffffffffffffffffffff168273ffffffffffffffffffffffffffffffffffffffff1603610d6e576040517f08c379a0000000000000000000000000000000000000000000000000000000008152600401610d65906134af565b60405180910390fd5b600360008373ffffffffffffffffffffffffffffffffffffffff1673ffffffffffffffffffffffffffffffffffffffff168152602001908152602001600020549050919050565b610dbd61171f565b610dc7600061183d565b565b610dd161171f565b610dd9611903565b565b6000600a60019054906101000a900473ffffffffffffffffffffffffffffffffffffffff16905090565b610e0d61171f565b81600c60006101000a81548160ff02191690831515021790555080600c60016101000a81548160ff0219169083151502179055505050565b606060018054610e5490612f53565b80601f0160208091040260200160405190810160405280929190818152602001828054610e8090612f53565b8015610ecd5780601f10610ea257610100808354040283529160200191610ecd565b820191906000526020600020905b815481529060010190602001808311610eb057829003601f168201915b5050505050905090565b610ee9610ee2611260565b8383611966565b5050565b600d6020528060005260406000206000915054906101000a900460ff1681565b610f1e610f18611260565b83611391565b610f5d576040517f08c379a0000000000000000000000000000000000000000000000000000000008152600401610f549061325e565b60405180910390fd5b610f6984848484611ad2565b50505050565b6060610f7a82611215565b6000610f84611b2e565b90506000815111610fa45760405180602001604052806000815250610fcf565b80610fae84611b4e565b604051602001610fbf92919061350b565b6040516020818303038152906040525b915050919050565b610fdf61171f565b60005b8282905081101561107f576001600d6000858585818110611006576110056133a2565b5b905060200201602081019061101b9190612ba6565b73ffffffffffffffffffffffffffffffffffffffff1673ffffffffffffffffffffffffffffffffffffffff16815260200190815260200160002060006101000a81548160ff02191690831515021790555080806110779061355e565b915050610fe2565b505050565b6000600560008473ffffffffffffffffffffffffffffffffffffffff1673ffffffffffffffffffffffffffffffffffffffff16815260200190815260200160002060008373ffffffffffffffffffffffffffffffffffffffff1673ffffffffffffffffffffffffffffffffffffffff16815260200190815260200160002060009054906101000a900460ff16905092915050565b61112061171f565b600073ffffffffffffffffffffffffffffffffffffffff168173ffffffffffffffffffffffffffffffffffffffff160361118f576040517f08c379a000000000000000000000000000000000000000000000000000000000815260040161118690613618565b60405180910390fd5b6111988161183d565b50565b60007f780e9d63000000000000000000000000000000000000000000000000000000007bffffffffffffffffffffffffffffffffffffffffffffffffffffffff1916827bffffffffffffffffffffffffffffffffffffffffffffffffffffffff1916148061120e575061120d82611c1c565b5b9050919050565b61121e81611cfe565b61125d576040517f08c379a00000000000000000000000000000000000000000000000000000000081526004016112549061341d565b60405180910390fd5b50565b600033905090565b816004600083815260200190815260200160002060006101000a81548173ffffffffffffffffffffffffffffffffffffffff021916908373ffffffffffffffffffffffffffffffffffffffff160217905550808273ffffffffffffffffffffffffffffffffffffffff166112db83610c78565b73ffffffffffffffffffffffffffffffffffffffff167f8c5be1e5ebec7d5bd14f71427d1e84f3dd0314c0f7b2291e5b200ac8c7c3b92560405160405180910390a45050565b600b5461132c6109b1565b1061136c576040517f08c379a000000000000000000000000000000000000000000000000000000000815260040161136390613684565b60405180910390fd5b6000611378600e611d3f565b9050611384600e611d4d565b61138e3382611d63565b50565b60008061139d83610c78565b90508073ffffffffffffffffffffffffffffffffffffffff168473ffffffffffffffffffffffffffffffffffffffff1614806113df57506113de8185611084565b5b8061141d57508373ffffffffffffffffffffffffffffffffffffffff1661140584610726565b73ffffffffffffffffffffffffffffffffffffffff16145b91505092915050565b8273ffffffffffffffffffffffffffffffffffffffff1661144682610c78565b73ffffffffffffffffffffffffffffffffffffffff161461149c576040517f08c379a000000000000000000000000000000000000000000000000000000000815260040161149390613716565b60405180910390fd5b600073ffffffffffffffffffffffffffffffffffffffff168273ffffffffffffffffffffffffffffffffffffffff160361150b576040517f08c379a0000000000000000000000000000000000000000000000000000000008152600401611502906137a8565b60405180910390fd5b6115188383836001611d81565b8273ffffffffffffffffffffffffffffffffffffffff1661153882610c78565b73ffffffffffffffffffffffffffffffffffffffff161461158e576040517f08c379a000000000000000000000000000000000000000000000000000000000815260040161158590613716565b60405180910390fd5b6004600082815260200190815260200160002060006101000a81549073ffffffffffffffffffffffffffffffffffffffff02191690556001600360008573ffffffffffffffffffffffffffffffffffffffff1673ffffffffffffffffffffffffffffffffffffffff168152602001908152602001600020600082825403925050819055506001600360008473ffffffffffffffffffffffffffffffffffffffff1673ffffffffffffffffffffffffffffffffffffffff16815260200190815260200160002060008282540192505081905550816002600083815260200190815260200160002060006101000a81548173ffffffffffffffffffffffffffffffffffffffff021916908373ffffffffffffffffffffffffffffffffffffffff160217905550808273ffffffffffffffffffffffffffffffffffffffff168473ffffffffffffffffffffffffffffffffffffffff167fddf252ad1be2c89b69c2b068fc378daa952ba7f163c4a11628f55a4df523b3ef60405160405180910390a461171a8383836001611d9b565b505050565b611727611260565b73ffffffffffffffffffffffffffffffffffffffff16611745610ddb565b73ffffffffffffffffffffffffffffffffffffffff161461179b576040517f08c379a000000000000000000000000000000000000000000000000000000000815260040161179290613814565b60405180910390fd5b565b6117a5611da1565b6000600a60006101000a81548160ff0219169083151502179055507f5db9ee0a495bf2e6ff9c91a7834c1ba4fdd244a5e8aa4e537bd38aeae4b073aa6117e9611260565b6040516117f69190612aa2565b60405180910390a1565b60006002600083815260200190815260200160002060009054906101000a900473ffffffffffffffffffffffffffffffffffffffff169050919050565b6000600a60019054906101000a900473ffffffffffffffffffffffffffffffffffffffff16905081600a60016101000a81548173ffffffffffffffffffffffffffffffffffffffff021916908373ffffffffffffffffffffffffffffffffffffffff1602179055508173ffffffffffffffffffffffffffffffffffffffff168173ffffffffffffffffffffffffffffffffffffffff167f8be0079c531659141344cd1fd0a4f28419497f9722a3daafe3b4186f6b6457e060405160405180910390a35050565b61190b611dea565b6001600a60006101000a81548160ff0219169083151502179055507f62e78cea01bee320cd4e420270b5ea74000d11b0c9f74754ebdbfc544b05a25861194f611260565b60405161195c9190612aa2565b60405180910390a1565b8173ffffffffffffffffffffffffffffffffffffffff168373ffffffffffffffffffffffffffffffffffffffff16036119d4576040517f08c379a00000000000000000000000000000000000000000000000000000000081526004016119cb90613880565b60405180910390fd5b80600560008573ffffffffffffffffffffffffffffffffffffffff1673ffffffffffffffffffffffffffffffffffffffff16815260200190815260200160002060008473ffffffffffffffffffffffffffffffffffffffff1673ffffffffffffffffffffffffffffffffffffffff16815260200190815260200160002060006101000a81548160ff0219169083151502179055508173ffffffffffffffffffffffffffffffffffffffff168373ffffffffffffffffffffffffffffffffffffffff167f17307eab39ab6107e8899845ad3d59bd9653f200f220920489ca2b5937696c3183604051611ac59190612931565b60405180910390a3505050565b611add848484611426565b611ae984848484611e34565b611b28576040517f08c379a0000000000000000000000000000000000000000000000000000000008152600401611b1f90613912565b60405180910390fd5b50505050565b6060604051806060016040528060368152602001613cea60369139905090565b606060006001611b5d84611fbb565b01905060008167ffffffffffffffff811115611b7c57611b7b612c89565b5b6040519080825280601f01601f191660200182016040528015611bae5781602001600182028036833780820191505090505b509050600082602001820190505b600115611c11578080600190039150507f3031323334353637383961626364656600000000000000000000000000000000600a86061a8153600a8581611c0557611c04613932565b5b04945060008503611bbc575b819350505050919050565b60007f80ac58cd000000000000000000000000000000000000000000000000000000007bffffffffffffffffffffffffffffffffffffffffffffffffffffffff1916827bffffffffffffffffffffffffffffffffffffffffffffffffffffffff19161480611ce757507f5b5e139f000000000000000000000000000000000000000000000000000000007bffffffffffffffffffffffffffffffffffffffffffffffffffffffff1916827bffffffffffffffffffffffffffffffffffffffffffffffffffffffff1916145b80611cf75750611cf68261210e565b5b9050919050565b60008073ffffffffffffffffffffffffffffffffffffffff16611d2083611800565b73ffffffffffffffffffffffffffffffffffffffff1614159050919050565b600081600001549050919050565b6001816000016000828254019250508190555050565b611d7d828260405180602001604052806000815250612178565b5050565b611d89611dea565b611d95848484846121d3565b50505050565b50505050565b611da9610c61565b611de8576040517f08c379a0000000000000000000000000000000000000000000000000000000008152600401611ddf906139ad565b60405180910390fd5b565b611df2610c61565b15611e32576040517f08c379a0000000000000000000000000000000000000000000000000000000008152600401611e2990613a19565b60405180910390fd5b565b6000611e558473ffffffffffffffffffffffffffffffffffffffff16612331565b15611fae578373ffffffffffffffffffffffffffffffffffffffff1663150b7a02611e7e611260565b8786866040518563ffffffff1660e01b8152600401611ea09493929190613a8e565b6020604051808303816000875af1925050508015611edc57506040513d601f19601f82011682018060405250810190611ed99190613aef565b60015b611f5e573d8060008114611f0c576040519150601f19603f3d011682016040523d82523d6000602084013e611f11565b606091505b506000815103611f56576040517f08c379a0000000000000000000000000000000000000000000000000000000008152600401611f4d90613912565b60405180910390fd5b805181602001fd5b63150b7a0260e01b7bffffffffffffffffffffffffffffffffffffffffffffffffffffffff1916817bffffffffffffffffffffffffffffffffffffffffffffffffffffffff191614915050611fb3565b600190505b949350505050565b600080600090507a184f03e93ff9f4daa797ed6e38ed64bf6a1f0100000000000000008310612019577a184f03e93ff9f4daa797ed6e38ed64bf6a1f010000000000000000838161200f5761200e613932565b5b0492506040810190505b6d04ee2d6d415b85acef81000000008310612056576d04ee2d6d415b85acef8100000000838161204c5761204b613932565b5b0492506020810190505b662386f26fc10000831061208557662386f26fc10000838161207b5761207a613932565b5b0492506010810190505b6305f5e10083106120ae576305f5e10083816120a4576120a3613932565b5b0492506008810190505b61271083106120d35761271083816120c9576120c8613932565b5b0492506004810190505b606483106120f657606483816120ec576120eb613932565b5b0492506002810190505b600a8310612105576001810190505b80915050919050565b60007f01ffc9a7000000000000000000000000000000000000000000000000000000007bffffffffffffffffffffffffffffffffffffffffffffffffffffffff1916827bffffffffffffffffffffffffffffffffffffffffffffffffffffffff1916149050919050565b6121828383612354565b61218f6000848484611e34565b6121ce576040517f08c379a00000000000000000000000000000000000000000000000000000000081526004016121c590613912565b60405180910390fd5b505050565b6121df84848484612571565b6001811115612223576040517f08c379a000000000000000000000000000000000000000000000000000000000815260040161221a90613b8e565b60405180910390fd5b6000829050600073ffffffffffffffffffffffffffffffffffffffff168573ffffffffffffffffffffffffffffffffffffffff160361226a5761226581612577565b6122a9565b8373ffffffffffffffffffffffffffffffffffffffff168573ffffffffffffffffffffffffffffffffffffffff16146122a8576122a785826125c0565b5b5b600073ffffffffffffffffffffffffffffffffffffffff168473ffffffffffffffffffffffffffffffffffffffff16036122eb576122e68161272d565b61232a565b8473ffffffffffffffffffffffffffffffffffffffff168473ffffffffffffffffffffffffffffffffffffffff16146123295761232884826127fe565b5b5b5050505050565b6000808273ffffffffffffffffffffffffffffffffffffffff163b119050919050565b600073ffffffffffffffffffffffffffffffffffffffff168273ffffffffffffffffffffffffffffffffffffffff16036123c3576040517f08c379a00000000000000000000000000000000000000000000000000000000081526004016123ba90613bfa565b60405180910390fd5b6123cc81611cfe565b1561240c576040517f08c379a000000000000000000000000000000000000000000000000000000000815260040161240390613c66565b60405180910390fd5b61241a600083836001611d81565b61242381611cfe565b15612463576040517f08c379a000000000000000000000000000000000000000000000000000000000815260040161245a90613c66565b60405180910390fd5b6001600360008473ffffffffffffffffffffffffffffffffffffffff1673ffffffffffffffffffffffffffffffffffffffff16815260200190815260200160002060008282540192505081905550816002600083815260200190815260200160002060006101000a81548173ffffffffffffffffffffffffffffffffffffffff021916908373ffffffffffffffffffffffffffffffffffffffff160217905550808273ffffffffffffffffffffffffffffffffffffffff16600073ffffffffffffffffffffffffffffffffffffffff167fddf252ad1be2c89b69c2b068fc378daa952ba7f163c4a11628f55a4df523b3ef60405160405180910390a461256d600083836001611d9b565b5050565b50505050565b6008805490506009600083815260200190815260200160002081905550600881908060018154018082558091505060019003906000526020600020016000909190919091505550565b600060016125cd84610cfe565b6125d79190613c86565b90506000600760008481526020019081526020016000205490508181146126bc576000600660008673ffffffffffffffffffffffffffffffffffffffff1673ffffffffffffffffffffffffffffffffffffffff168152602001908152602001600020600084815260200190815260200160002054905080600660008773ffffffffffffffffffffffffffffffffffffffff1673ffffffffffffffffffffffffffffffffffffffff168152602001908152602001600020600084815260200190815260200160002081905550816007600083815260200190815260200160002081905550505b6007600084815260200190815260200160002060009055600660008573ffffffffffffffffffffffffffffffffffffffff1673ffffffffffffffffffffffffffffffffffffffff16815260200190815260200160002060008381526020019081526020016000206000905550505050565b600060016008805490506127419190613c86565b9050600060096000848152602001908152602001600020549050600060088381548110612771576127706133a2565b5b906000526020600020015490508060088381548110612793576127926133a2565b5b9060005260206000200181905550816009600083815260200190815260200160002081905550600960008581526020019081526020016000206000905560088054806127e2576127e1613cba565b5b6001900381819060005260206000200160009055905550505050565b600061280983610cfe565b905081600660008573ffffffffffffffffffffffffffffffffffffffff1673ffffffffffffffffffffffffffffffffffffffff168152602001908152602001600020600083815260200190815260200160002081905550806007600084815260200190815260200160002081905550505050565b6000604051905090565b600080fd5b600080fd5b60007fffffffff0000000000000000000000000000000000000000000000000000000082169050919050565b6128c681612891565b81146128d157600080fd5b50565b6000813590506128e3816128bd565b92915050565b6000602082840312156128ff576128fe612887565b5b600061290d848285016128d4565b91505092915050565b60008115159050919050565b61292b81612916565b82525050565b60006020820190506129466000830184612922565b92915050565b600081519050919050565b600082825260208201905092915050565b60005b8381101561298657808201518184015260208101905061296b565b60008484015250505050565b6000601f19601f8301169050919050565b60006129ae8261294c565b6129b88185612957565b93506129c8818560208601612968565b6129d181612992565b840191505092915050565b600060208201905081810360008301526129f681846129a3565b905092915050565b6000819050919050565b612a11816129fe565b8114612a1c57600080fd5b50565b600081359050612a2e81612a08565b92915050565b600060208284031215612a4a57612a49612887565b5b6000612a5884828501612a1f565b91505092915050565b600073ffffffffffffffffffffffffffffffffffffffff82169050919050565b6000612a8c82612a61565b9050919050565b612a9c81612a81565b82525050565b6000602082019050612ab76000830184612a93565b92915050565b612ac681612a81565b8114612ad157600080fd5b50565b600081359050612ae381612abd565b92915050565b60008060408385031215612b0057612aff612887565b5b6000612b0e85828601612ad4565b9250506020612b1f85828601612a1f565b9150509250929050565b612b32816129fe565b82525050565b6000602082019050612b4d6000830184612b29565b92915050565b600080600060608486031215612b6c57612b6b612887565b5b6000612b7a86828701612ad4565b9350506020612b8b86828701612ad4565b9250506040612b9c86828701612a1f565b9150509250925092565b600060208284031215612bbc57612bbb612887565b5b6000612bca84828501612ad4565b91505092915050565b612bdc81612916565b8114612be757600080fd5b50565b600081359050612bf981612bd3565b92915050565b60008060408385031215612c1657612c15612887565b5b6000612c2485828601612bea565b9250506020612c3585828601612bea565b9150509250929050565b60008060408385031215612c5657612c55612887565b5b6000612c6485828601612ad4565b9250506020612c7585828601612bea565b9150509250929050565b600080fd5b600080fd5b7f4e487b7100000000000000000000000000000000000000000000000000000000600052604160045260246000fd5b612cc182612992565b810181811067ffffffffffffffff82111715612ce057612cdf612c89565b5b80604052505050565b6000612cf361287d565b9050612cff8282612cb8565b919050565b600067ffffffffffffffff821115612d1f57612d1e612c89565b5b612d2882612992565b9050602081019050919050565b82818337600083830152505050565b6000612d57612d5284612d04565b612ce9565b905082815260208101848484011115612d7357612d72612c84565b5b612d7e848285612d35565b509392505050565b600082601f830112612d9b57612d9a612c7f565b5b8135612dab848260208601612d44565b91505092915050565b60008060008060808587031215612dce57612dcd612887565b5b6000612ddc87828801612ad4565b9450506020612ded87828801612ad4565b9350506040612dfe87828801612a1f565b925050606085013567ffffffffffffffff811115612e1f57612e1e61288c565b5b612e2b87828801612d86565b91505092959194509250565b600080fd5b600080fd5b60008083601f840112612e5757612e56612c7f565b5b8235905067ffffffffffffffff811115612e7457612e73612e37565b5b602083019150836020820283011115612e9057612e8f612e3c565b5b9250929050565b60008060208385031215612eae57612ead612887565b5b600083013567ffffffffffffffff811115612ecc57612ecb61288c565b5b612ed885828601612e41565b92509250509250929050565b60008060408385031215612efb57612efa612887565b5b6000612f0985828601612ad4565b9250506020612f1a85828601612ad4565b9150509250929050565b7f4e487b7100000000000000000000000000000000000000000000000000000000600052602260045260246000fd5b60006002820490506001821680612f6b57607f821691505b602082108103612f7e57612f7d612f24565b5b50919050565b7f4552433732313a20617070726f76616c20746f2063757272656e74206f776e6560008201527f7200000000000000000000000000000000000000000000000000000000000000602082015250565b6000612fe0602183612957565b9150612feb82612f84565b604082019050919050565b6000602082019050818103600083015261300f81612fd3565b9050919050565b7f4552433732313a20617070726f76652063616c6c6572206973206e6f7420746f60008201527f6b656e206f776e6572206f7220617070726f76656420666f7220616c6c000000602082015250565b6000613072603d83612957565b915061307d82613016565b604082019050919050565b600060208201905081810360008301526130a181613065565b9050919050565b7f796f752068617665206e6f7420656e6f7567682066756e647300000000000000600082015250565b60006130de601983612957565b91506130e9826130a8565b602082019050919050565b6000602082019050818103600083015261310d816130d1565b9050919050565b7f416c6c6f774c697374206d696e74206973206e6f74206f70656e000000000000600082015250565b600061314a601a83612957565b915061315582613114565b602082019050919050565b600060208201905081810360008301526131798161313d565b9050919050565b7f796f7520617265206e6f7420696e20616c6c6f776c6973740000000000000000600082015250565b60006131b6601883612957565b91506131c182613180565b602082019050919050565b600060208201905081810360008301526131e5816131a9565b9050919050565b7f4552433732313a2063616c6c6572206973206e6f7420746f6b656e206f776e6560008201527f72206f7220617070726f76656400000000000000000000000000000000000000602082015250565b6000613248602d83612957565b9150613253826131ec565b604082019050919050565b600060208201905081810360008301526132778161323b565b9050919050565b7f455243373231456e756d657261626c653a206f776e657220696e646578206f7560008201527f74206f6620626f756e6473000000000000000000000000000000000000000000602082015250565b60006132da602b83612957565b91506132e58261327e565b604082019050919050565b60006020820190508181036000830152613309816132cd565b9050919050565b7f455243373231456e756d657261626c653a20676c6f62616c20696e646578206f60008201527f7574206f6620626f756e64730000000000000000000000000000000000000000602082015250565b600061336c602c83612957565b915061337782613310565b604082019050919050565b6000602082019050818103600083015261339b8161335f565b9050919050565b7f4e487b7100000000000000000000000000000000000000000000000000000000600052603260045260246000fd5b7f4552433732313a20696e76616c696420746f6b656e2049440000000000000000600082015250565b6000613407601883612957565b9150613412826133d1565b602082019050919050565b60006020820190508181036000830152613436816133fa565b9050919050565b7f4552433732313a2061646472657373207a65726f206973206e6f74206120766160008201527f6c6964206f776e65720000000000000000000000000000000000000000000000602082015250565b6000613499602983612957565b91506134a48261343d565b604082019050919050565b600060208201905081810360008301526134c88161348c565b9050919050565b600081905092915050565b60006134e58261294c565b6134ef81856134cf565b93506134ff818560208601612968565b80840191505092915050565b600061351782856134da565b915061352382846134da565b91508190509392505050565b7f4e487b7100000000000000000000000000000000000000000000000000000000600052601160045260246000fd5b6000613569826129fe565b91507fffffffffffffffffffffffffffffffffffffffffffffffffffffffffffffffff820361359b5761359a61352f565b5b600182019050919050565b7f4f776e61626c653a206e6577206f776e657220697320746865207a65726f206160008201527f6464726573730000000000000000000000000000000000000000000000000000602082015250565b6000613602602683612957565b915061360d826135a6565b604082019050919050565b60006020820190508181036000830152613631816135f5565b9050919050565b7f77652061726520736f6c64206f75740000000000000000000000000000000000600082015250565b600061366e600f83612957565b915061367982613638565b602082019050919050565b6000602082019050818103600083015261369d81613661565b9050919050565b7f4552433732313a207472616e736665722066726f6d20696e636f72726563742060008201527f6f776e6572000000000000000000000000000000000000000000000000000000602082015250565b6000613700602583612957565b915061370b826136a4565b604082019050919050565b6000602082019050818103600083015261372f816136f3565b9050919050565b7f4552433732313a207472616e7366657220746f20746865207a65726f2061646460008201527f7265737300000000000000000000000000000000000000000000000000000000602082015250565b6000613792602483612957565b915061379d82613736565b604082019050919050565b600060208201905081810360008301526137c181613785565b9050919050565b7f4f776e61626c653a2063616c6c6572206973206e6f7420746865206f776e6572600082015250565b60006137fe602083612957565b9150613809826137c8565b602082019050919050565b6000602082019050818103600083015261382d816137f1565b9050919050565b7f4552433732313a20617070726f766520746f2063616c6c657200000000000000600082015250565b600061386a601983612957565b915061387582613834565b602082019050919050565b600060208201905081810360008301526138998161385d565b9050919050565b7f4552433732313a207472616e7366657220746f206e6f6e20455243373231526560008201527f63656976657220696d706c656d656e7465720000000000000000000000000000602082015250565b60006138fc603283612957565b9150613907826138a0565b604082019050919050565b6000602082019050818103600083015261392b816138ef565b9050919050565b7f4e487b7100000000000000000000000000000000000000000000000000000000600052601260045260246000fd5b7f5061757361626c653a206e6f7420706175736564000000000000000000000000600082015250565b6000613997601483612957565b91506139a282613961565b602082019050919050565b600060208201905081810360008301526139c68161398a565b9050919050565b7f5061757361626c653a2070617573656400000000000000000000000000000000600082015250565b6000613a03601083612957565b9150613a0e826139cd565b602082019050919050565b60006020820190508181036000830152613a32816139f6565b9050919050565b600081519050919050565b600082825260208201905092915050565b6000613a6082613a39565b613a6a8185613a44565b9350613a7a818560208601612968565b613a8381612992565b840191505092915050565b6000608082019050613aa36000830187612a93565b613ab06020830186612a93565b613abd6040830185612b29565b8181036060830152613acf8184613a55565b905095945050505050565b600081519050613ae9816128bd565b92915050565b600060208284031215613b0557613b04612887565b5b6000613b1384828501613ada565b91505092915050565b7f455243373231456e756d657261626c653a20636f6e736563757469766520747260008201527f616e7366657273206e6f7420737570706f727465640000000000000000000000602082015250565b6000613b78603583612957565b9150613b8382613b1c565b604082019050919050565b60006020820190508181036000830152613ba781613b6b565b9050919050565b7f4552433732313a206d696e7420746f20746865207a65726f2061646472657373600082015250565b6000613be4602083612957565b9150613bef82613bae565b602082019050919050565b60006020820190508181036000830152613c1381613bd7565b9050919050565b7f4552433732313a20746f6b656e20616c7265616479206d696e74656400000000600082015250565b6000613c50601c83612957565b9150613c5b82613c1a565b602082019050919050565b60006020820190508181036000830152613c7f81613c43565b9050919050565b6000613c91826129fe565b9150613c9c836129fe565b9250828203905081811115613cb457613cb361352f565b5b92915050565b7f4e487b7100000000000000000000000000000000000000000000000000000000600052603160045260246000fdfe697066733a2f2f516d593572507147544e31725a784d516732417069535a63374a69424e73317279447a58505a705168433169626d2fa2646970667358221220f7e671f94a0b110ba13dab69ebf72f8a6dcd16c83fc72efa954a8a39a798d45264736f6c63430008120033",
			"opcodes": "PUSH1 0x80 PUSH1 0x40 MSTORE PUSH1 0x3 PUSH1 0xB SSTORE PUSH1 0x0 PUSH1 0xC PUSH1 0x0 PUSH2 0x100 EXP DUP2 SLOAD DUP2 PUSH1 0xFF MUL NOT AND SWAP1 DUP4 ISZERO ISZERO MUL OR SWAP1 SSTORE POP PUSH1 0x0 PUSH1 0xC PUSH1 0x1 PUSH2 0x100 EXP DUP2 SLOAD DUP2 PUSH1 0xFF MUL NOT AND SWAP1 DUP4 ISZERO ISZERO MUL OR SWAP1 SSTORE POP CALLVALUE DUP1 ISZERO PUSH3 0x4C JUMPI PUSH1 0x0 DUP1 REVERT JUMPDEST POP PUSH1 0x40 MLOAD DUP1 PUSH1 0x40 ADD PUSH1 0x40 MSTORE DUP1 PUSH1 0x9 DUP2 MSTORE PUSH1 0x20 ADD PUSH32 0x4E4654467269656E640000000000000000000000000000000000000000000000 DUP2 MSTORE POP PUSH1 0x40 MLOAD DUP1 PUSH1 0x40 ADD PUSH1 0x40 MSTORE DUP1 PUSH1 0x4 DUP2 MSTORE PUSH1 0x20 ADD PUSH32 0x4E46544600000000000000000000000000000000000000000000000000000000 DUP2 MSTORE POP DUP2 PUSH1 0x0 SWAP1 DUP2 PUSH3 0xCA SWAP2 SWAP1 PUSH3 0x468 JUMP JUMPDEST POP DUP1 PUSH1 0x1 SWAP1 DUP2 PUSH3 0xDC SWAP2 SWAP1 PUSH3 0x468 JUMP JUMPDEST POP POP POP PUSH1 0x0 PUSH1 0xA PUSH1 0x0 PUSH2 0x100 EXP DUP2 SLOAD DUP2 PUSH1 0xFF MUL NOT AND SWAP1 DUP4 ISZERO ISZERO MUL OR SWAP1 SSTORE POP PUSH3 0x11A PUSH3 0x10E PUSH3 0x120 PUSH1 0x20 SHL PUSH1 0x20 SHR JUMP JUMPDEST PUSH3 0x128 PUSH1 0x20 SHL PUSH1 0x20 SHR JUMP JUMPDEST PUSH3 0x54F JUMP JUMPDEST PUSH1 0x0 CALLER SWAP1 POP SWAP1 JUMP JUMPDEST PUSH1 0x0 PUSH1 0xA PUSH1 0x1 SWAP1 SLOAD SWAP1 PUSH2 0x100 EXP SWAP1 DIV PUSH20 0xFFFFFFFFFFFFFFFFFFFFFFFFFFFFFFFFFFFFFFFF AND SWAP1 POP DUP2 PUSH1 0xA PUSH1 0x1 PUSH2 0x100 EXP DUP2 SLOAD DUP2 PUSH20 0xFFFFFFFFFFFFFFFFFFFFFFFFFFFFFFFFFFFFFFFF MUL NOT AND SWAP1 DUP4 PUSH20 0xFFFFFFFFFFFFFFFFFFFFFFFFFFFFFFFFFFFFFFFF AND MUL OR SWAP1 SSTORE POP DUP2 PUSH20 0xFFFFFFFFFFFFFFFFFFFFFFFFFFFFFFFFFFFFFFFF AND DUP2 PUSH20 0xFFFFFFFFFFFFFFFFFFFFFFFFFFFFFFFFFFFFFFFF AND PUSH32 0x8BE0079C531659141344CD1FD0A4F28419497F9722A3DAAFE3B4186F6B6457E0 PUSH1 0x40 MLOAD PUSH1 0x40 MLOAD DUP1 SWAP2 SUB SWAP1 LOG3 POP POP JUMP JUMPDEST PUSH1 0x0 DUP2 MLOAD SWAP1 POP SWAP2 SWAP1 POP JUMP JUMPDEST PUSH32 0x4E487B7100000000000000000000000000000000000000000000000000000000 PUSH1 0x0 MSTORE PUSH1 0x41 PUSH1 0x4 MSTORE PUSH1 0x24 PUSH1 0x0 REVERT JUMPDEST PUSH32 0x4E487B7100000000000000000000000000000000000000000000000000000000 PUSH1 0x0 MSTORE PUSH1 0x22 PUSH1 0x4 MSTORE PUSH1 0x24 PUSH1 0x0 REVERT JUMPDEST PUSH1 0x0 PUSH1 0x2 DUP3 DIV SWAP1 POP PUSH1 0x1 DUP3 AND DUP1 PUSH3 0x270 JUMPI PUSH1 0x7F DUP3 AND SWAP2 POP JUMPDEST PUSH1 0x20 DUP3 LT DUP2 SUB PUSH3 0x286 JUMPI PUSH3 0x285 PUSH3 0x228 JUMP JUMPDEST JUMPDEST POP SWAP2 SWAP1 POP JUMP JUMPDEST PUSH1 0x0 DUP2 SWAP1 POP DUP2 PUSH1 0x0 MSTORE PUSH1 0x20 PUSH1 0x0 KECCAK256 SWAP1 POP SWAP2 SWAP1 POP JUMP JUMPDEST PUSH1 0x0 PUSH1 0x20 PUSH1 0x1F DUP4 ADD DIV SWAP1 POP SWAP2 SWAP1 POP JUMP JUMPDEST PUSH1 0x0 DUP3 DUP3 SHL SWAP1 POP SWAP3 SWAP2 POP POP JUMP JUMPDEST PUSH1 0x0 PUSH1 0x8 DUP4 MUL PUSH3 0x2F0 PUSH32 0xFFFFFFFFFFFFFFFFFFFFFFFFFFFFFFFFFFFFFFFFFFFFFFFFFFFFFFFFFFFFFFFF DUP3 PUSH3 0x2B1 JUMP JUMPDEST PUSH3 0x2FC DUP7 DUP4 PUSH3 0x2B1 JUMP JUMPDEST SWAP6 POP DUP1 NOT DUP5 AND SWAP4 POP DUP1 DUP7 AND DUP5 OR SWAP3 POP POP POP SWAP4 SWAP3 POP POP POP JUMP JUMPDEST PUSH1 0x0 DUP2 SWAP1 POP SWAP2 SWAP1 POP JUMP JUMPDEST PUSH1 0x0 DUP2 SWAP1 POP SWAP2 SWAP1 POP JUMP JUMPDEST PUSH1 0x0 PUSH3 0x349 PUSH3 0x343 PUSH3 0x33D DUP5 PUSH3 0x314 JUMP JUMPDEST PUSH3 0x31E JUMP JUMPDEST PUSH3 0x314 JUMP JUMPDEST SWAP1 POP SWAP2 SWAP1 POP JUMP JUMPDEST PUSH1 0x0 DUP2 SWAP1 POP SWAP2 SWAP1 POP JUMP JUMPDEST PUSH3 0x365 DUP4 PUSH3 0x328 JUMP JUMPDEST PUSH3 0x37D PUSH3 0x374 DUP3 PUSH3 0x350 JUMP JUMPDEST DUP5 DUP5 SLOAD PUSH3 0x2BE JUMP JUMPDEST DUP3 SSTORE POP POP POP POP JUMP JUMPDEST PUSH1 0x0 SWAP1 JUMP JUMPDEST PUSH3 0x394 PUSH3 0x385 JUMP JUMPDEST PUSH3 0x3A1 DUP2 DUP5 DUP5 PUSH3 0x35A JUMP JUMPDEST POP POP POP JUMP JUMPDEST JUMPDEST DUP2 DUP2 LT ISZERO PUSH3 0x3C9 JUMPI PUSH3 0x3BD PUSH1 0x0 DUP3 PUSH3 0x38A JUMP JUMPDEST PUSH1 0x1 DUP2 ADD SWAP1 POP PUSH3 0x3A7 JUMP JUMPDEST POP POP JUMP JUMPDEST PUSH1 0x1F DUP3 GT ISZERO PUSH3 0x418 JUMPI PUSH3 0x3E2 DUP2 PUSH3 0x28C JUMP JUMPDEST PUSH3 0x3ED DUP5 PUSH3 0x2A1 JUMP JUMPDEST DUP2 ADD PUSH1 0x20 DUP6 LT ISZERO PUSH3 0x3FD JUMPI DUP2 SWAP1 POP JUMPDEST PUSH3 0x415 PUSH3 0x40C DUP6 PUSH3 0x2A1 JUMP JUMPDEST DUP4 ADD DUP3 PUSH3 0x3A6 JUMP JUMPDEST POP POP JUMPDEST POP POP POP JUMP JUMPDEST PUSH1 0x0 DUP3 DUP3 SHR SWAP1 POP SWAP3 SWAP2 POP POP JUMP JUMPDEST PUSH1 0x0 PUSH3 0x43D PUSH1 0x0 NOT DUP5 PUSH1 0x8 MUL PUSH3 0x41D JUMP JUMPDEST NOT DUP1 DUP4 AND SWAP2 POP POP SWAP3 SWAP2 POP POP JUMP JUMPDEST PUSH1 0x0 PUSH3 0x458 DUP4 DUP4 PUSH3 0x42A JUMP JUMPDEST SWAP2 POP DUP3 PUSH1 0x2 MUL DUP3 OR SWAP1 POP SWAP3 SWAP2 POP POP JUMP JUMPDEST PUSH3 0x473 DUP3 PUSH3 0x1EE JUMP JUMPDEST PUSH8 0xFFFFFFFFFFFFFFFF DUP2 GT ISZERO PUSH3 0x48F JUMPI PUSH3 0x48E PUSH3 0x1F9 JUMP JUMPDEST JUMPDEST PUSH3 0x49B DUP3 SLOAD PUSH3 0x257 JUMP JUMPDEST PUSH3 0x4A8 DUP3 DUP3 DUP6 PUSH3 0x3CD JUMP JUMPDEST PUSH1 0x0 PUSH1 0x20 SWAP1 POP PUSH1 0x1F DUP4 GT PUSH1 0x1 DUP2 EQ PUSH3 0x4E0 JUMPI PUSH1 0x0 DUP5 ISZERO PUSH3 0x4CB JUMPI DUP3 DUP8 ADD MLOAD SWAP1 POP JUMPDEST PUSH3 0x4D7 DUP6 DUP3 PUSH3 0x44A JUMP JUMPDEST DUP7 SSTORE POP PUSH3 0x547 JUMP JUMPDEST PUSH1 0x1F NOT DUP5 AND PUSH3 0x4F0 DUP7 PUSH3 0x28C JUMP JUMPDEST PUSH1 0x0 JUMPDEST DUP3 DUP2 LT ISZERO PUSH3 0x51A JUMPI DUP5 DUP10 ADD MLOAD DUP3 SSTORE PUSH1 0x1 DUP3 ADD SWAP2 POP PUSH1 0x20 DUP6 ADD SWAP5 POP PUSH1 0x20 DUP2 ADD SWAP1 POP PUSH3 0x4F3 JUMP JUMPDEST DUP7 DUP4 LT ISZERO PUSH3 0x53A JUMPI DUP5 DUP10 ADD MLOAD PUSH3 0x536 PUSH1 0x1F DUP10 AND DUP3 PUSH3 0x42A JUMP JUMPDEST DUP4 SSTORE POP JUMPDEST PUSH1 0x1 PUSH1 0x2 DUP9 MUL ADD DUP9 SSTORE POP POP POP JUMPDEST POP POP POP POP POP POP JUMP JUMPDEST PUSH2 0x3D55 DUP1 PUSH3 0x55F PUSH1 0x0 CODECOPY PUSH1 0x0 RETURN INVALID PUSH1 0x80 PUSH1 0x40 MSTORE PUSH1 0x4 CALLDATASIZE LT PUSH2 0x1B7 JUMPI PUSH1 0x0 CALLDATALOAD PUSH1 0xE0 SHR DUP1 PUSH4 0x6352211E GT PUSH2 0xEC JUMPI DUP1 PUSH4 0xA22CB465 GT PUSH2 0x8A JUMPI DUP1 PUSH4 0xC87B56DD GT PUSH2 0x64 JUMPI DUP1 PUSH4 0xC87B56DD EQ PUSH2 0x5B6 JUMPI DUP1 PUSH4 0xD7949118 EQ PUSH2 0x5F3 JUMPI DUP1 PUSH4 0xE985E9C5 EQ PUSH2 0x61C JUMPI DUP1 PUSH4 0xF2FDE38B EQ PUSH2 0x659 JUMPI PUSH2 0x1B7 JUMP JUMPDEST DUP1 PUSH4 0xA22CB465 EQ PUSH2 0x527 JUMPI DUP1 PUSH4 0xA7CD52CB EQ PUSH2 0x550 JUMPI DUP1 PUSH4 0xB88D4FDE EQ PUSH2 0x58D JUMPI PUSH2 0x1B7 JUMP JUMPDEST DUP1 PUSH4 0x8456CB59 GT PUSH2 0xC6 JUMPI DUP1 PUSH4 0x8456CB59 EQ PUSH2 0x491 JUMPI DUP1 PUSH4 0x8DA5CB5B EQ PUSH2 0x4A8 JUMPI DUP1 PUSH4 0x90CE7254 EQ PUSH2 0x4D3 JUMPI DUP1 PUSH4 0x95D89B41 EQ PUSH2 0x4FC JUMPI PUSH2 0x1B7 JUMP JUMPDEST DUP1 PUSH4 0x6352211E EQ PUSH2 0x400 JUMPI DUP1 PUSH4 0x70A08231 EQ PUSH2 0x43D JUMPI DUP1 PUSH4 0x715018A6 EQ PUSH2 0x47A JUMPI PUSH2 0x1B7 JUMP JUMPDEST DUP1 PUSH4 0x26092B83 GT PUSH2 0x159 JUMPI DUP1 PUSH4 0x42842E0E GT PUSH2 0x133 JUMPI DUP1 PUSH4 0x42842E0E EQ PUSH2 0x346 JUMPI DUP1 PUSH4 0x4F6CCCE7 EQ PUSH2 0x36F JUMPI DUP1 PUSH4 0x51CFF8D9 EQ PUSH2 0x3AC JUMPI DUP1 PUSH4 0x5C975ABB EQ PUSH2 0x3D5 JUMPI PUSH2 0x1B7 JUMP JUMPDEST DUP1 PUSH4 0x26092B83 EQ PUSH2 0x2E8 JUMPI DUP1 PUSH4 0x2F745C59 EQ PUSH2 0x2F2 JUMPI DUP1 PUSH4 0x3F4BA83A EQ PUSH2 0x32F JUMPI PUSH2 0x1B7 JUMP JUMPDEST DUP1 PUSH4 0x95EA7B3 GT PUSH2 0x195 JUMPI DUP1 PUSH4 0x95EA7B3 EQ PUSH2 0x261 JUMPI DUP1 PUSH4 0x102A6A73 EQ PUSH2 0x28A JUMPI DUP1 PUSH4 0x18160DDD EQ PUSH2 0x294 JUMPI DUP1 PUSH4 0x23B872DD EQ PUSH2 0x2BF JUMPI PUSH2 0x1B7 JUMP JUMPDEST DUP1 PUSH4 0x1FFC9A7 EQ PUSH2 0x1BC JUMPI DUP1 PUSH4 0x6FDDE03 EQ PUSH2 0x1F9 JUMPI DUP1 PUSH4 0x81812FC EQ PUSH2 0x224 JUMPI JUMPDEST PUSH1 0x0 DUP1 REVERT JUMPDEST CALLVALUE DUP1 ISZERO PUSH2 0x1C8 JUMPI PUSH1 0x0 DUP1 REVERT JUMPDEST POP PUSH2 0x1E3 PUSH1 0x4 DUP1 CALLDATASIZE SUB DUP2 ADD SWAP1 PUSH2 0x1DE SWAP2 SWAP1 PUSH2 0x28E9 JUMP JUMPDEST PUSH2 0x682 JUMP JUMPDEST PUSH1 0x40 MLOAD PUSH2 0x1F0 SWAP2 SWAP1 PUSH2 0x2931 JUMP JUMPDEST PUSH1 0x40 MLOAD DUP1 SWAP2 SUB SWAP1 RETURN JUMPDEST CALLVALUE DUP1 ISZERO PUSH2 0x205 JUMPI PUSH1 0x0 DUP1 REVERT JUMPDEST POP PUSH2 0x20E PUSH2 0x694 JUMP JUMPDEST PUSH1 0x40 MLOAD PUSH2 0x21B SWAP2 SWAP1 PUSH2 0x29DC JUMP JUMPDEST PUSH1 0x40 MLOAD DUP1 SWAP2 SUB SWAP1 RETURN JUMPDEST CALLVALUE DUP1 ISZERO PUSH2 0x230 JUMPI PUSH1 0x0 DUP1 REVERT JUMPDEST POP PUSH2 0x24B PUSH1 0x4 DUP1 CALLDATASIZE SUB DUP2 ADD SWAP1 PUSH2 0x246 SWAP2 SWAP1 PUSH2 0x2A34 JUMP JUMPDEST PUSH2 0x726 JUMP JUMPDEST PUSH1 0x40 MLOAD PUSH2 0x258 SWAP2 SWAP1 PUSH2 0x2AA2 JUMP JUMPDEST PUSH1 0x40 MLOAD DUP1 SWAP2 SUB SWAP1 RETURN JUMPDEST CALLVALUE DUP1 ISZERO PUSH2 0x26D JUMPI PUSH1 0x0 DUP1 REVERT JUMPDEST POP PUSH2 0x288 PUSH1 0x4 DUP1 CALLDATASIZE SUB DUP2 ADD SWAP1 PUSH2 0x283 SWAP2 SWAP1 PUSH2 0x2AE9 JUMP JUMPDEST PUSH2 0x76C JUMP JUMPDEST STOP JUMPDEST PUSH2 0x292 PUSH2 0x883 JUMP JUMPDEST STOP JUMPDEST CALLVALUE DUP1 ISZERO PUSH2 0x2A0 JUMPI PUSH1 0x0 DUP1 REVERT JUMPDEST POP PUSH2 0x2A9 PUSH2 0x9B1 JUMP JUMPDEST PUSH1 0x40 MLOAD PUSH2 0x2B6 SWAP2 SWAP1 PUSH2 0x2B38 JUMP JUMPDEST PUSH1 0x40 MLOAD DUP1 SWAP2 SUB SWAP1 RETURN JUMPDEST CALLVALUE DUP1 ISZERO PUSH2 0x2CB JUMPI PUSH1 0x0 DUP1 REVERT JUMPDEST POP PUSH2 0x2E6 PUSH1 0x4 DUP1 CALLDATASIZE SUB DUP2 ADD SWAP1 PUSH2 0x2E1 SWAP2 SWAP1 PUSH2 0x2B53 JUMP JUMPDEST PUSH2 0x9BE JUMP JUMPDEST STOP JUMPDEST PUSH2 0x2F0 PUSH2 0xA1E JUMP JUMPDEST STOP JUMPDEST CALLVALUE DUP1 ISZERO PUSH2 0x2FE JUMPI PUSH1 0x0 DUP1 REVERT JUMPDEST POP PUSH2 0x319 PUSH1 0x4 DUP1 CALLDATASIZE SUB DUP2 ADD SWAP1 PUSH2 0x314 SWAP2 SWAP1 PUSH2 0x2AE9 JUMP JUMPDEST PUSH2 0xAC1 JUMP JUMPDEST PUSH1 0x40 MLOAD PUSH2 0x326 SWAP2 SWAP1 PUSH2 0x2B38 JUMP JUMPDEST PUSH1 0x40 MLOAD DUP1 SWAP2 SUB SWAP1 RETURN JUMPDEST CALLVALUE DUP1 ISZERO PUSH2 0x33B JUMPI PUSH1 0x0 DUP1 REVERT JUMPDEST POP PUSH2 0x344 PUSH2 0xB66 JUMP JUMPDEST STOP JUMPDEST CALLVALUE DUP1 ISZERO PUSH2 0x352 JUMPI PUSH1 0x0 DUP1 REVERT JUMPDEST POP PUSH2 0x36D PUSH1 0x4 DUP1 CALLDATASIZE SUB DUP2 ADD SWAP1 PUSH2 0x368 SWAP2 SWAP1 PUSH2 0x2B53 JUMP JUMPDEST PUSH2 0xB78 JUMP JUMPDEST STOP JUMPDEST CALLVALUE DUP1 ISZERO PUSH2 0x37B JUMPI PUSH1 0x0 DUP1 REVERT JUMPDEST POP PUSH2 0x396 PUSH1 0x4 DUP1 CALLDATASIZE SUB DUP2 ADD SWAP1 PUSH2 0x391 SWAP2 SWAP1 PUSH2 0x2A34 JUMP JUMPDEST PUSH2 0xB98 JUMP JUMPDEST PUSH1 0x40 MLOAD PUSH2 0x3A3 SWAP2 SWAP1 PUSH2 0x2B38 JUMP JUMPDEST PUSH1 0x40 MLOAD DUP1 SWAP2 SUB SWAP1 RETURN JUMPDEST CALLVALUE DUP1 ISZERO PUSH2 0x3B8 JUMPI PUSH1 0x0 DUP1 REVERT JUMPDEST POP PUSH2 0x3D3 PUSH1 0x4 DUP1 CALLDATASIZE SUB DUP2 ADD SWAP1 PUSH2 0x3CE SWAP2 SWAP1 PUSH2 0x2BA6 JUMP JUMPDEST PUSH2 0xC09 JUMP JUMPDEST STOP JUMPDEST CALLVALUE DUP1 ISZERO PUSH2 0x3E1 JUMPI PUSH1 0x0 DUP1 REVERT JUMPDEST POP PUSH2 0x3EA PUSH2 0xC61 JUMP JUMPDEST PUSH1 0x40 MLOAD PUSH2 0x3F7 SWAP2 SWAP1 PUSH2 0x2931 JUMP JUMPDEST PUSH1 0x40 MLOAD DUP1 SWAP2 SUB SWAP1 RETURN JUMPDEST CALLVALUE DUP1 ISZERO PUSH2 0x40C JUMPI PUSH1 0x0 DUP1 REVERT JUMPDEST POP PUSH2 0x427 PUSH1 0x4 DUP1 CALLDATASIZE SUB DUP2 ADD SWAP1 PUSH2 0x422 SWAP2 SWAP1 PUSH2 0x2A34 JUMP JUMPDEST PUSH2 0xC78 JUMP JUMPDEST PUSH1 0x40 MLOAD PUSH2 0x434 SWAP2 SWAP1 PUSH2 0x2AA2 JUMP JUMPDEST PUSH1 0x40 MLOAD DUP1 SWAP2 SUB SWAP1 RETURN JUMPDEST CALLVALUE DUP1 ISZERO PUSH2 0x449 JUMPI PUSH1 0x0 DUP1 REVERT JUMPDEST POP PUSH2 0x464 PUSH1 0x4 DUP1 CALLDATASIZE SUB DUP2 ADD SWAP1 PUSH2 0x45F SWAP2 SWAP1 PUSH2 0x2BA6 JUMP JUMPDEST PUSH2 0xCFE JUMP JUMPDEST PUSH1 0x40 MLOAD PUSH2 0x471 SWAP2 SWAP1 PUSH2 0x2B38 JUMP JUMPDEST PUSH1 0x40 MLOAD DUP1 SWAP2 SUB SWAP1 RETURN JUMPDEST CALLVALUE DUP1 ISZERO PUSH2 0x486 JUMPI PUSH1 0x0 DUP1 REVERT JUMPDEST POP PUSH2 0x48F PUSH2 0xDB5 JUMP JUMPDEST STOP JUMPDEST CALLVALUE DUP1 ISZERO PUSH2 0x49D JUMPI PUSH1 0x0 DUP1 REVERT JUMPDEST POP PUSH2 0x4A6 PUSH2 0xDC9 JUMP JUMPDEST STOP JUMPDEST CALLVALUE DUP1 ISZERO PUSH2 0x4B4 JUMPI PUSH1 0x0 DUP1 REVERT JUMPDEST POP PUSH2 0x4BD PUSH2 0xDDB JUMP JUMPDEST PUSH1 0x40 MLOAD PUSH2 0x4CA SWAP2 SWAP1 PUSH2 0x2AA2 JUMP JUMPDEST PUSH1 0x40 MLOAD DUP1 SWAP2 SUB SWAP1 RETURN JUMPDEST CALLVALUE DUP1 ISZERO PUSH2 0x4DF JUMPI PUSH1 0x0 DUP1 REVERT JUMPDEST POP PUSH2 0x4FA PUSH1 0x4 DUP1 CALLDATASIZE SUB DUP2 ADD SWAP1 PUSH2 0x4F5 SWAP2 SWAP1 PUSH2 0x2BFF JUMP JUMPDEST PUSH2 0xE05 JUMP JUMPDEST STOP JUMPDEST CALLVALUE DUP1 ISZERO PUSH2 0x508 JUMPI PUSH1 0x0 DUP1 REVERT JUMPDEST POP PUSH2 0x511 PUSH2 0xE45 JUMP JUMPDEST PUSH1 0x40 MLOAD PUSH2 0x51E SWAP2 SWAP1 PUSH2 0x29DC JUMP JUMPDEST PUSH1 0x40 MLOAD DUP1 SWAP2 SUB SWAP1 RETURN JUMPDEST CALLVALUE DUP1 ISZERO PUSH2 0x533 JUMPI PUSH1 0x0 DUP1 REVERT JUMPDEST POP PUSH2 0x54E PUSH1 0x4 DUP1 CALLDATASIZE SUB DUP2 ADD SWAP1 PUSH2 0x549 SWAP2 SWAP1 PUSH2 0x2C3F JUMP JUMPDEST PUSH2 0xED7 JUMP JUMPDEST STOP JUMPDEST CALLVALUE DUP1 ISZERO PUSH2 0x55C JUMPI PUSH1 0x0 DUP1 REVERT JUMPDEST POP PUSH2 0x577 PUSH1 0x4 DUP1 CALLDATASIZE SUB DUP2 ADD SWAP1 PUSH2 0x572 SWAP2 SWAP1 PUSH2 0x2BA6 JUMP JUMPDEST PUSH2 0xEED JUMP JUMPDEST PUSH1 0x40 MLOAD PUSH2 0x584 SWAP2 SWAP1 PUSH2 0x2931 JUMP JUMPDEST PUSH1 0x40 MLOAD DUP1 SWAP2 SUB SWAP1 RETURN JUMPDEST CALLVALUE DUP1 ISZERO PUSH2 0x599 JUMPI PUSH1 0x0 DUP1 REVERT JUMPDEST POP PUSH2 0x5B4 PUSH1 0x4 DUP1 CALLDATASIZE SUB DUP2 ADD SWAP1 PUSH2 0x5AF SWAP2 SWAP1 PUSH2 0x2DB4 JUMP JUMPDEST PUSH2 0xF0D JUMP JUMPDEST STOP JUMPDEST CALLVALUE DUP1 ISZERO PUSH2 0x5C2 JUMPI PUSH1 0x0 DUP1 REVERT JUMPDEST POP PUSH2 0x5DD PUSH1 0x4 DUP1 CALLDATASIZE SUB DUP2 ADD SWAP1 PUSH2 0x5D8 SWAP2 SWAP1 PUSH2 0x2A34 JUMP JUMPDEST PUSH2 0xF6F JUMP JUMPDEST PUSH1 0x40 MLOAD PUSH2 0x5EA SWAP2 SWAP1 PUSH2 0x29DC JUMP JUMPDEST PUSH1 0x40 MLOAD DUP1 SWAP2 SUB SWAP1 RETURN JUMPDEST CALLVALUE DUP1 ISZERO PUSH2 0x5FF JUMPI PUSH1 0x0 DUP1 REVERT JUMPDEST POP PUSH2 0x61A PUSH1 0x4 DUP1 CALLDATASIZE SUB DUP2 ADD SWAP1 PUSH2 0x615 SWAP2 SWAP1 PUSH2 0x2E97 JUMP JUMPDEST PUSH2 0xFD7 JUMP JUMPDEST STOP JUMPDEST CALLVALUE DUP1 ISZERO PUSH2 0x628 JUMPI PUSH1 0x0 DUP1 REVERT JUMPDEST POP PUSH2 0x643 PUSH1 0x4 DUP1 CALLDATASIZE SUB DUP2 ADD SWAP1 PUSH2 0x63E SWAP2 SWAP1 PUSH2 0x2EE4 JUMP JUMPDEST PUSH2 0x1084 JUMP JUMPDEST PUSH1 0x40 MLOAD PUSH2 0x650 SWAP2 SWAP1 PUSH2 0x2931 JUMP JUMPDEST PUSH1 0x40 MLOAD DUP1 SWAP2 SUB SWAP1 RETURN JUMPDEST CALLVALUE DUP1 ISZERO PUSH2 0x665 JUMPI PUSH1 0x0 DUP1 REVERT JUMPDEST POP PUSH2 0x680 PUSH1 0x4 DUP1 CALLDATASIZE SUB DUP2 ADD SWAP1 PUSH2 0x67B SWAP2 SWAP1 PUSH2 0x2BA6 JUMP JUMPDEST PUSH2 0x1118 JUMP JUMPDEST STOP JUMPDEST PUSH1 0x0 PUSH2 0x68D DUP3 PUSH2 0x119B JUMP JUMPDEST SWAP1 POP SWAP2 SWAP1 POP JUMP JUMPDEST PUSH1 0x60 PUSH1 0x0 DUP1 SLOAD PUSH2 0x6A3 SWAP1 PUSH2 0x2F53 JUMP JUMPDEST DUP1 PUSH1 0x1F ADD PUSH1 0x20 DUP1 SWAP2 DIV MUL PUSH1 0x20 ADD PUSH1 0x40 MLOAD SWAP1 DUP2 ADD PUSH1 0x40 MSTORE DUP1 SWAP3 SWAP2 SWAP1 DUP2 DUP2 MSTORE PUSH1 0x20 ADD DUP3 DUP1 SLOAD PUSH2 0x6CF SWAP1 PUSH2 0x2F53 JUMP JUMPDEST DUP1 ISZERO PUSH2 0x71C JUMPI DUP1 PUSH1 0x1F LT PUSH2 0x6F1 JUMPI PUSH2 0x100 DUP1 DUP4 SLOAD DIV MUL DUP4 MSTORE SWAP2 PUSH1 0x20 ADD SWAP2 PUSH2 0x71C JUMP JUMPDEST DUP3 ADD SWAP2 SWAP1 PUSH1 0x0 MSTORE PUSH1 0x20 PUSH1 0x0 KECCAK256 SWAP1 JUMPDEST DUP2 SLOAD DUP2 MSTORE SWAP1 PUSH1 0x1 ADD SWAP1 PUSH1 0x20 ADD DUP1 DUP4 GT PUSH2 0x6FF JUMPI DUP3 SWAP1 SUB PUSH1 0x1F AND DUP3 ADD SWAP2 JUMPDEST POP POP POP POP POP SWAP1 POP SWAP1 JUMP JUMPDEST PUSH1 0x0 PUSH2 0x731 DUP3 PUSH2 0x1215 JUMP JUMPDEST PUSH1 0x4 PUSH1 0x0 DUP4 DUP2 MSTORE PUSH1 0x20 ADD SWAP1 DUP2 MSTORE PUSH1 0x20 ADD PUSH1 0x0 KECCAK256 PUSH1 0x0 SWAP1 SLOAD SWAP1 PUSH2 0x100 EXP SWAP1 DIV PUSH20 0xFFFFFFFFFFFFFFFFFFFFFFFFFFFFFFFFFFFFFFFF AND SWAP1 POP SWAP2 SWAP1 POP JUMP JUMPDEST PUSH1 0x0 PUSH2 0x777 DUP3 PUSH2 0xC78 JUMP JUMPDEST SWAP1 POP DUP1 PUSH20 0xFFFFFFFFFFFFFFFFFFFFFFFFFFFFFFFFFFFFFFFF AND DUP4 PUSH20 0xFFFFFFFFFFFFFFFFFFFFFFFFFFFFFFFFFFFFFFFF AND SUB PUSH2 0x7E7 JUMPI PUSH1 0x40 MLOAD PUSH32 0x8C379A000000000000000000000000000000000000000000000000000000000 DUP2 MSTORE PUSH1 0x4 ADD PUSH2 0x7DE SWAP1 PUSH2 0x2FF6 JUMP JUMPDEST PUSH1 0x40 MLOAD DUP1 SWAP2 SUB SWAP1 REVERT JUMPDEST DUP1 PUSH20 0xFFFFFFFFFFFFFFFFFFFFFFFFFFFFFFFFFFFFFFFF AND PUSH2 0x806 PUSH2 0x1260 JUMP JUMPDEST PUSH20 0xFFFFFFFFFFFFFFFFFFFFFFFFFFFFFFFFFFFFFFFF AND EQ DUP1 PUSH2 0x835 JUMPI POP PUSH2 0x834 DUP2 PUSH2 0x82F PUSH2 0x1260 JUMP JUMPDEST PUSH2 0x1084 JUMP JUMPDEST JUMPDEST PUSH2 0x874 JUMPI PUSH1 0x40 MLOAD PUSH32 0x8C379A000000000000000000000000000000000000000000000000000000000 DUP2 MSTORE PUSH1 0x4 ADD PUSH2 0x86B SWAP1 PUSH2 0x3088 JUMP JUMPDEST PUSH1 0x40 MLOAD DUP1 SWAP2 SUB SWAP1 REVERT JUMPDEST PUSH2 0x87E DUP4 DUP4 PUSH2 0x1268 JUMP JUMPDEST POP POP POP JUMP JUMPDEST PUSH7 0x2386F26FC10000 CALLVALUE EQ PUSH2 0x8CC JUMPI PUSH1 0x40 MLOAD PUSH32 0x8C379A000000000000000000000000000000000000000000000000000000000 DUP2 MSTORE PUSH1 0x4 ADD PUSH2 0x8C3 SWAP1 PUSH2 0x30F4 JUMP JUMPDEST PUSH1 0x40 MLOAD DUP1 SWAP2 SUB SWAP1 REVERT JUMPDEST PUSH1 0xC PUSH1 0x1 SWAP1 SLOAD SWAP1 PUSH2 0x100 EXP SWAP1 DIV PUSH1 0xFF AND PUSH2 0x91B JUMPI PUSH1 0x40 MLOAD PUSH32 0x8C379A000000000000000000000000000000000000000000000000000000000 DUP2 MSTORE PUSH1 0x4 ADD PUSH2 0x912 SWAP1 PUSH2 0x3160 JUMP JUMPDEST PUSH1 0x40 MLOAD DUP1 SWAP2 SUB SWAP1 REVERT JUMPDEST PUSH1 0xD PUSH1 0x0 CALLER PUSH20 0xFFFFFFFFFFFFFFFFFFFFFFFFFFFFFFFFFFFFFFFF AND PUSH20 0xFFFFFFFFFFFFFFFFFFFFFFFFFFFFFFFFFFFFFFFF AND DUP2 MSTORE PUSH1 0x20 ADD SWAP1 DUP2 MSTORE PUSH1 0x20 ADD PUSH1 0x0 KECCAK256 PUSH1 0x0 SWAP1 SLOAD SWAP1 PUSH2 0x100 EXP SWAP1 DIV PUSH1 0xFF AND PUSH2 0x9A7 JUMPI PUSH1 0x40 MLOAD PUSH32 0x8C379A000000000000000000000000000000000000000000000000000000000 DUP2 MSTORE PUSH1 0x4 ADD PUSH2 0x99E SWAP1 PUSH2 0x31CC JUMP JUMPDEST PUSH1 0x40 MLOAD DUP1 SWAP2 SUB SWAP1 REVERT JUMPDEST PUSH2 0x9AF PUSH2 0x1321 JUMP JUMPDEST JUMP JUMPDEST PUSH1 0x0 PUSH1 0x8 DUP1 SLOAD SWAP1 POP SWAP1 POP SWAP1 JUMP JUMPDEST PUSH2 0x9CF PUSH2 0x9C9 PUSH2 0x1260 JUMP JUMPDEST DUP3 PUSH2 0x1391 JUMP JUMPDEST PUSH2 0xA0E JUMPI PUSH1 0x40 MLOAD PUSH32 0x8C379A000000000000000000000000000000000000000000000000000000000 DUP2 MSTORE PUSH1 0x4 ADD PUSH2 0xA05 SWAP1 PUSH2 0x325E JUMP JUMPDEST PUSH1 0x40 MLOAD DUP1 SWAP2 SUB SWAP1 REVERT JUMPDEST PUSH2 0xA19 DUP4 DUP4 DUP4 PUSH2 0x1426 JUMP JUMPDEST POP POP POP JUMP JUMPDEST PUSH8 0x16345785D8A0000 CALLVALUE EQ PUSH2 0xA68 JUMPI PUSH1 0x40 MLOAD PUSH32 0x8C379A000000000000000000000000000000000000000000000000000000000 DUP2 MSTORE PUSH1 0x4 ADD PUSH2 0xA5F SWAP1 PUSH2 0x30F4 JUMP JUMPDEST PUSH1 0x40 MLOAD DUP1 SWAP2 SUB SWAP1 REVERT JUMPDEST PUSH1 0xC PUSH1 0x0 SWAP1 SLOAD SWAP1 PUSH2 0x100 EXP SWAP1 DIV PUSH1 0xFF AND PUSH2 0xAB7 JUMPI PUSH1 0x40 MLOAD PUSH32 0x8C379A000000000000000000000000000000000000000000000000000000000 DUP2 MSTORE PUSH1 0x4 ADD PUSH2 0xAAE SWAP1 PUSH2 0x3160 JUMP JUMPDEST PUSH1 0x40 MLOAD DUP1 SWAP2 SUB SWAP1 REVERT JUMPDEST PUSH2 0xABF PUSH2 0x1321 JUMP JUMPDEST JUMP JUMPDEST PUSH1 0x0 PUSH2 0xACC DUP4 PUSH2 0xCFE JUMP JUMPDEST DUP3 LT PUSH2 0xB0D JUMPI PUSH1 0x40 MLOAD PUSH32 0x8C379A000000000000000000000000000000000000000000000000000000000 DUP2 MSTORE PUSH1 0x4 ADD PUSH2 0xB04 SWAP1 PUSH2 0x32F0 JUMP JUMPDEST PUSH1 0x40 MLOAD DUP1 SWAP2 SUB SWAP1 REVERT JUMPDEST PUSH1 0x6 PUSH1 0x0 DUP5 PUSH20 0xFFFFFFFFFFFFFFFFFFFFFFFFFFFFFFFFFFFFFFFF AND PUSH20 0xFFFFFFFFFFFFFFFFFFFFFFFFFFFFFFFFFFFFFFFF AND DUP2 MSTORE PUSH1 0x20 ADD SWAP1 DUP2 MSTORE PUSH1 0x20 ADD PUSH1 0x0 KECCAK256 PUSH1 0x0 DUP4 DUP2 MSTORE PUSH1 0x20 ADD SWAP1 DUP2 MSTORE PUSH1 0x20 ADD PUSH1 0x0 KECCAK256 SLOAD SWAP1 POP SWAP3 SWAP2 POP POP JUMP JUMPDEST PUSH2 0xB6E PUSH2 0x171F JUMP JUMPDEST PUSH2 0xB76 PUSH2 0x179D JUMP JUMPDEST JUMP JUMPDEST PUSH2 0xB93 DUP4 DUP4 DUP4 PUSH1 0x40 MLOAD DUP1 PUSH1 0x20 ADD PUSH1 0x40 MSTORE DUP1 PUSH1 0x0 DUP2 MSTORE POP PUSH2 0xF0D JUMP JUMPDEST POP POP POP JUMP JUMPDEST PUSH1 0x0 PUSH2 0xBA2 PUSH2 0x9B1 JUMP JUMPDEST DUP3 LT PUSH2 0xBE3 JUMPI PUSH1 0x40 MLOAD PUSH32 0x8C379A000000000000000000000000000000000000000000000000000000000 DUP2 MSTORE PUSH1 0x4 ADD PUSH2 0xBDA SWAP1 PUSH2 0x3382 JUMP JUMPDEST PUSH1 0x40 MLOAD DUP1 SWAP2 SUB SWAP1 REVERT JUMPDEST PUSH1 0x8 DUP3 DUP2 SLOAD DUP2 LT PUSH2 0xBF7 JUMPI PUSH2 0xBF6 PUSH2 0x33A2 JUMP JUMPDEST JUMPDEST SWAP1 PUSH1 0x0 MSTORE PUSH1 0x20 PUSH1 0x0 KECCAK256 ADD SLOAD SWAP1 POP SWAP2 SWAP1 POP JUMP JUMPDEST PUSH2 0xC11 PUSH2 0x171F JUMP JUMPDEST PUSH1 0x0 SELFBALANCE SWAP1 POP DUP2 PUSH20 0xFFFFFFFFFFFFFFFFFFFFFFFFFFFFFFFFFFFFFFFF AND PUSH2 0x8FC DUP3 SWAP1 DUP2 ISZERO MUL SWAP1 PUSH1 0x40 MLOAD PUSH1 0x0 PUSH1 0x40 MLOAD DUP1 DUP4 SUB DUP2 DUP6 DUP9 DUP9 CALL SWAP4 POP POP POP POP ISZERO DUP1 ISZERO PUSH2 0xC5C JUMPI RETURNDATASIZE PUSH1 0x0 DUP1 RETURNDATACOPY RETURNDATASIZE PUSH1 0x0 REVERT JUMPDEST POP POP POP JUMP JUMPDEST PUSH1 0x0 PUSH1 0xA PUSH1 0x0 SWAP1 SLOAD SWAP1 PUSH2 0x100 EXP SWAP1 DIV PUSH1 0xFF AND SWAP1 POP SWAP1 JUMP JUMPDEST PUSH1 0x0 DUP1 PUSH2 0xC84 DUP4 PUSH2 0x1800 JUMP JUMPDEST SWAP1 POP PUSH1 0x0 PUSH20 0xFFFFFFFFFFFFFFFFFFFFFFFFFFFFFFFFFFFFFFFF AND DUP2 PUSH20 0xFFFFFFFFFFFFFFFFFFFFFFFFFFFFFFFFFFFFFFFF AND SUB PUSH2 0xCF5 JUMPI PUSH1 0x40 MLOAD PUSH32 0x8C379A000000000000000000000000000000000000000000000000000000000 DUP2 MSTORE PUSH1 0x4 ADD PUSH2 0xCEC SWAP1 PUSH2 0x341D JUMP JUMPDEST PUSH1 0x40 MLOAD DUP1 SWAP2 SUB SWAP1 REVERT JUMPDEST DUP1 SWAP2 POP POP SWAP2 SWAP1 POP JUMP JUMPDEST PUSH1 0x0 DUP1 PUSH20 0xFFFFFFFFFFFFFFFFFFFFFFFFFFFFFFFFFFFFFFFF AND DUP3 PUSH20 0xFFFFFFFFFFFFFFFFFFFFFFFFFFFFFFFFFFFFFFFF AND SUB PUSH2 0xD6E JUMPI PUSH1 0x40 MLOAD PUSH32 0x8C379A000000000000000000000000000000000000000000000000000000000 DUP2 MSTORE PUSH1 0x4 ADD PUSH2 0xD65 SWAP1 PUSH2 0x34AF JUMP JUMPDEST PUSH1 0x40 MLOAD DUP1 SWAP2 SUB SWAP1 REVERT JUMPDEST PUSH1 0x3 PUSH1 0x0 DUP4 PUSH20 0xFFFFFFFFFFFFFFFFFFFFFFFFFFFFFFFFFFFFFFFF AND PUSH20 0xFFFFFFFFFFFFFFFFFFFFFFFFFFFFFFFFFFFFFFFF AND DUP2 MSTORE PUSH1 0x20 ADD SWAP1 DUP2 MSTORE PUSH1 0x20 ADD PUSH1 0x0 KECCAK256 SLOAD SWAP1 POP SWAP2 SWAP1 POP JUMP JUMPDEST PUSH2 0xDBD PUSH2 0x171F JUMP JUMPDEST PUSH2 0xDC7 PUSH1 0x0 PUSH2 0x183D JUMP JUMPDEST JUMP JUMPDEST PUSH2 0xDD1 PUSH2 0x171F JUMP JUMPDEST PUSH2 0xDD9 PUSH2 0x1903 JUMP JUMPDEST JUMP JUMPDEST PUSH1 0x0 PUSH1 0xA PUSH1 0x1 SWAP1 SLOAD SWAP1 PUSH2 0x100 EXP SWAP1 DIV PUSH20 0xFFFFFFFFFFFFFFFFFFFFFFFFFFFFFFFFFFFFFFFF AND SWAP1 POP SWAP1 JUMP JUMPDEST PUSH2 0xE0D PUSH2 0x171F JUMP JUMPDEST DUP2 PUSH1 0xC PUSH1 0x0 PUSH2 0x100 EXP DUP2 SLOAD DUP2 PUSH1 0xFF MUL NOT AND SWAP1 DUP4 ISZERO ISZERO MUL OR SWAP1 SSTORE POP DUP1 PUSH1 0xC PUSH1 0x1 PUSH2 0x100 EXP DUP2 SLOAD DUP2 PUSH1 0xFF MUL NOT AND SWAP1 DUP4 ISZERO ISZERO MUL OR SWAP1 SSTORE POP POP POP JUMP JUMPDEST PUSH1 0x60 PUSH1 0x1 DUP1 SLOAD PUSH2 0xE54 SWAP1 PUSH2 0x2F53 JUMP JUMPDEST DUP1 PUSH1 0x1F ADD PUSH1 0x20 DUP1 SWAP2 DIV MUL PUSH1 0x20 ADD PUSH1 0x40 MLOAD SWAP1 DUP2 ADD PUSH1 0x40 MSTORE DUP1 SWAP3 SWAP2 SWAP1 DUP2 DUP2 MSTORE PUSH1 0x20 ADD DUP3 DUP1 SLOAD PUSH2 0xE80 SWAP1 PUSH2 0x2F53 JUMP JUMPDEST DUP1 ISZERO PUSH2 0xECD JUMPI DUP1 PUSH1 0x1F LT PUSH2 0xEA2 JUMPI PUSH2 0x100 DUP1 DUP4 SLOAD DIV MUL DUP4 MSTORE SWAP2 PUSH1 0x20 ADD SWAP2 PUSH2 0xECD JUMP JUMPDEST DUP3 ADD SWAP2 SWAP1 PUSH1 0x0 MSTORE PUSH1 0x20 PUSH1 0x0 KECCAK256 SWAP1 JUMPDEST DUP2 SLOAD DUP2 MSTORE SWAP1 PUSH1 0x1 ADD SWAP1 PUSH1 0x20 ADD DUP1 DUP4 GT PUSH2 0xEB0 JUMPI DUP3 SWAP1 SUB PUSH1 0x1F AND DUP3 ADD SWAP2 JUMPDEST POP POP POP POP POP SWAP1 POP SWAP1 JUMP JUMPDEST PUSH2 0xEE9 PUSH2 0xEE2 PUSH2 0x1260 JUMP JUMPDEST DUP4 DUP4 PUSH2 0x1966 JUMP JUMPDEST POP POP JUMP JUMPDEST PUSH1 0xD PUSH1 0x20 MSTORE DUP1 PUSH1 0x0 MSTORE PUSH1 0x40 PUSH1 0x0 KECCAK256 PUSH1 0x0 SWAP2 POP SLOAD SWAP1 PUSH2 0x100 EXP SWAP1 DIV PUSH1 0xFF AND DUP2 JUMP JUMPDEST PUSH2 0xF1E PUSH2 0xF18 PUSH2 0x1260 JUMP JUMPDEST DUP4 PUSH2 0x1391 JUMP JUMPDEST PUSH2 0xF5D JUMPI PUSH1 0x40 MLOAD PUSH32 0x8C379A000000000000000000000000000000000000000000000000000000000 DUP2 MSTORE PUSH1 0x4 ADD PUSH2 0xF54 SWAP1 PUSH2 0x325E JUMP JUMPDEST PUSH1 0x40 MLOAD DUP1 SWAP2 SUB SWAP1 REVERT JUMPDEST PUSH2 0xF69 DUP5 DUP5 DUP5 DUP5 PUSH2 0x1AD2 JUMP JUMPDEST POP POP POP POP JUMP JUMPDEST PUSH1 0x60 PUSH2 0xF7A DUP3 PUSH2 0x1215 JUMP JUMPDEST PUSH1 0x0 PUSH2 0xF84 PUSH2 0x1B2E JUMP JUMPDEST SWAP1 POP PUSH1 0x0 DUP2 MLOAD GT PUSH2 0xFA4 JUMPI PUSH1 0x40 MLOAD DUP1 PUSH1 0x20 ADD PUSH1 0x40 MSTORE DUP1 PUSH1 0x0 DUP2 MSTORE POP PUSH2 0xFCF JUMP JUMPDEST DUP1 PUSH2 0xFAE DUP5 PUSH2 0x1B4E JUMP JUMPDEST PUSH1 0x40 MLOAD PUSH1 0x20 ADD PUSH2 0xFBF SWAP3 SWAP2 SWAP1 PUSH2 0x350B JUMP JUMPDEST PUSH1 0x40 MLOAD PUSH1 0x20 DUP2 DUP4 SUB SUB DUP2 MSTORE SWAP1 PUSH1 0x40 MSTORE JUMPDEST SWAP2 POP POP SWAP2 SWAP1 POP JUMP JUMPDEST PUSH2 0xFDF PUSH2 0x171F JUMP JUMPDEST PUSH1 0x0 JUMPDEST DUP3 DUP3 SWAP1 POP DUP2 LT ISZERO PUSH2 0x107F JUMPI PUSH1 0x1 PUSH1 0xD PUSH1 0x0 DUP6 DUP6 DUP6 DUP2 DUP2 LT PUSH2 0x1006 JUMPI PUSH2 0x1005 PUSH2 0x33A2 JUMP JUMPDEST JUMPDEST SWAP1 POP PUSH1 0x20 MUL ADD PUSH1 0x20 DUP2 ADD SWAP1 PUSH2 0x101B SWAP2 SWAP1 PUSH2 0x2BA6 JUMP JUMPDEST PUSH20 0xFFFFFFFFFFFFFFFFFFFFFFFFFFFFFFFFFFFFFFFF AND PUSH20 0xFFFFFFFFFFFFFFFFFFFFFFFFFFFFFFFFFFFFFFFF AND DUP2 MSTORE PUSH1 0x20 ADD SWAP1 DUP2 MSTORE PUSH1 0x20 ADD PUSH1 0x0 KECCAK256 PUSH1 0x0 PUSH2 0x100 EXP DUP2 SLOAD DUP2 PUSH1 0xFF MUL NOT AND SWAP1 DUP4 ISZERO ISZERO MUL OR SWAP1 SSTORE POP DUP1 DUP1 PUSH2 0x1077 SWAP1 PUSH2 0x355E JUMP JUMPDEST SWAP2 POP POP PUSH2 0xFE2 JUMP JUMPDEST POP POP POP JUMP JUMPDEST PUSH1 0x0 PUSH1 0x5 PUSH1 0x0 DUP5 PUSH20 0xFFFFFFFFFFFFFFFFFFFFFFFFFFFFFFFFFFFFFFFF AND PUSH20 0xFFFFFFFFFFFFFFFFFFFFFFFFFFFFFFFFFFFFFFFF AND DUP2 MSTORE PUSH1 0x20 ADD SWAP1 DUP2 MSTORE PUSH1 0x20 ADD PUSH1 0x0 KECCAK256 PUSH1 0x0 DUP4 PUSH20 0xFFFFFFFFFFFFFFFFFFFFFFFFFFFFFFFFFFFFFFFF AND PUSH20 0xFFFFFFFFFFFFFFFFFFFFFFFFFFFFFFFFFFFFFFFF AND DUP2 MSTORE PUSH1 0x20 ADD SWAP1 DUP2 MSTORE PUSH1 0x20 ADD PUSH1 0x0 KECCAK256 PUSH1 0x0 SWAP1 SLOAD SWAP1 PUSH2 0x100 EXP SWAP1 DIV PUSH1 0xFF AND SWAP1 POP SWAP3 SWAP2 POP POP JUMP JUMPDEST PUSH2 0x1120 PUSH2 0x171F JUMP JUMPDEST PUSH1 0x0 PUSH20 0xFFFFFFFFFFFFFFFFFFFFFFFFFFFFFFFFFFFFFFFF AND DUP2 PUSH20 0xFFFFFFFFFFFFFFFFFFFFFFFFFFFFFFFFFFFFFFFF AND SUB PUSH2 0x118F JUMPI PUSH1 0x40 MLOAD PUSH32 0x8C379A000000000000000000000000000000000000000000000000000000000 DUP2 MSTORE PUSH1 0x4 ADD PUSH2 0x1186 SWAP1 PUSH2 0x3618 JUMP JUMPDEST PUSH1 0x40 MLOAD DUP1 SWAP2 SUB SWAP1 REVERT JUMPDEST PUSH2 0x1198 DUP2 PUSH2 0x183D JUMP JUMPDEST POP JUMP JUMPDEST PUSH1 0x0 PUSH32 0x780E9D6300000000000000000000000000000000000000000000000000000000 PUSH28 0xFFFFFFFFFFFFFFFFFFFFFFFFFFFFFFFFFFFFFFFFFFFFFFFFFFFFFFFF NOT AND DUP3 PUSH28 0xFFFFFFFFFFFFFFFFFFFFFFFFFFFFFFFFFFFFFFFFFFFFFFFFFFFFFFFF NOT AND EQ DUP1 PUSH2 0x120E JUMPI POP PUSH2 0x120D DUP3 PUSH2 0x1C1C JUMP JUMPDEST JUMPDEST SWAP1 POP SWAP2 SWAP1 POP JUMP JUMPDEST PUSH2 0x121E DUP2 PUSH2 0x1CFE JUMP JUMPDEST PUSH2 0x125D JUMPI PUSH1 0x40 MLOAD PUSH32 0x8C379A000000000000000000000000000000000000000000000000000000000 DUP2 MSTORE PUSH1 0x4 ADD PUSH2 0x1254 SWAP1 PUSH2 0x341D JUMP JUMPDEST PUSH1 0x40 MLOAD DUP1 SWAP2 SUB SWAP1 REVERT JUMPDEST POP JUMP JUMPDEST PUSH1 0x0 CALLER SWAP1 POP SWAP1 JUMP JUMPDEST DUP2 PUSH1 0x4 PUSH1 0x0 DUP4 DUP2 MSTORE PUSH1 0x20 ADD SWAP1 DUP2 MSTORE PUSH1 0x20 ADD PUSH1 0x0 KECCAK256 PUSH1 0x0 PUSH2 0x100 EXP DUP2 SLOAD DUP2 PUSH20 0xFFFFFFFFFFFFFFFFFFFFFFFFFFFFFFFFFFFFFFFF MUL NOT AND SWAP1 DUP4 PUSH20 0xFFFFFFFFFFFFFFFFFFFFFFFFFFFFFFFFFFFFFFFF AND MUL OR SWAP1 SSTORE POP DUP1 DUP3 PUSH20 0xFFFFFFFFFFFFFFFFFFFFFFFFFFFFFFFFFFFFFFFF AND PUSH2 0x12DB DUP4 PUSH2 0xC78 JUMP JUMPDEST PUSH20 0xFFFFFFFFFFFFFFFFFFFFFFFFFFFFFFFFFFFFFFFF AND PUSH32 0x8C5BE1E5EBEC7D5BD14F71427D1E84F3DD0314C0F7B2291E5B200AC8C7C3B925 PUSH1 0x40 MLOAD PUSH1 0x40 MLOAD DUP1 SWAP2 SUB SWAP1 LOG4 POP POP JUMP JUMPDEST PUSH1 0xB SLOAD PUSH2 0x132C PUSH2 0x9B1 JUMP JUMPDEST LT PUSH2 0x136C JUMPI PUSH1 0x40 MLOAD PUSH32 0x8C379A000000000000000000000000000000000000000000000000000000000 DUP2 MSTORE PUSH1 0x4 ADD PUSH2 0x1363 SWAP1 PUSH2 0x3684 JUMP JUMPDEST PUSH1 0x40 MLOAD DUP1 SWAP2 SUB SWAP1 REVERT JUMPDEST PUSH1 0x0 PUSH2 0x1378 PUSH1 0xE PUSH2 0x1D3F JUMP JUMPDEST SWAP1 POP PUSH2 0x1384 PUSH1 0xE PUSH2 0x1D4D JUMP JUMPDEST PUSH2 0x138E CALLER DUP3 PUSH2 0x1D63 JUMP JUMPDEST POP JUMP JUMPDEST PUSH1 0x0 DUP1 PUSH2 0x139D DUP4 PUSH2 0xC78 JUMP JUMPDEST SWAP1 POP DUP1 PUSH20 0xFFFFFFFFFFFFFFFFFFFFFFFFFFFFFFFFFFFFFFFF AND DUP5 PUSH20 0xFFFFFFFFFFFFFFFFFFFFFFFFFFFFFFFFFFFFFFFF AND EQ DUP1 PUSH2 0x13DF JUMPI POP PUSH2 0x13DE DUP2 DUP6 PUSH2 0x1084 JUMP JUMPDEST JUMPDEST DUP1 PUSH2 0x141D JUMPI POP DUP4 PUSH20 0xFFFFFFFFFFFFFFFFFFFFFFFFFFFFFFFFFFFFFFFF AND PUSH2 0x1405 DUP5 PUSH2 0x726 JUMP JUMPDEST PUSH20 0xFFFFFFFFFFFFFFFFFFFFFFFFFFFFFFFFFFFFFFFF AND EQ JUMPDEST SWAP2 POP POP SWAP3 SWAP2 POP POP JUMP JUMPDEST DUP3 PUSH20 0xFFFFFFFFFFFFFFFFFFFFFFFFFFFFFFFFFFFFFFFF AND PUSH2 0x1446 DUP3 PUSH2 0xC78 JUMP JUMPDEST PUSH20 0xFFFFFFFFFFFFFFFFFFFFFFFFFFFFFFFFFFFFFFFF AND EQ PUSH2 0x149C JUMPI PUSH1 0x40 MLOAD PUSH32 0x8C379A000000000000000000000000000000000000000000000000000000000 DUP2 MSTORE PUSH1 0x4 ADD PUSH2 0x1493 SWAP1 PUSH2 0x3716 JUMP JUMPDEST PUSH1 0x40 MLOAD DUP1 SWAP2 SUB SWAP1 REVERT JUMPDEST PUSH1 0x0 PUSH20 0xFFFFFFFFFFFFFFFFFFFFFFFFFFFFFFFFFFFFFFFF AND DUP3 PUSH20 0xFFFFFFFFFFFFFFFFFFFFFFFFFFFFFFFFFFFFFFFF AND SUB PUSH2 0x150B JUMPI PUSH1 0x40 MLOAD PUSH32 0x8C379A000000000000000000000000000000000000000000000000000000000 DUP2 MSTORE PUSH1 0x4 ADD PUSH2 0x1502 SWAP1 PUSH2 0x37A8 JUMP JUMPDEST PUSH1 0x40 MLOAD DUP1 SWAP2 SUB SWAP1 REVERT JUMPDEST PUSH2 0x1518 DUP4 DUP4 DUP4 PUSH1 0x1 PUSH2 0x1D81 JUMP JUMPDEST DUP3 PUSH20 0xFFFFFFFFFFFFFFFFFFFFFFFFFFFFFFFFFFFFFFFF AND PUSH2 0x1538 DUP3 PUSH2 0xC78 JUMP JUMPDEST PUSH20 0xFFFFFFFFFFFFFFFFFFFFFFFFFFFFFFFFFFFFFFFF AND EQ PUSH2 0x158E JUMPI PUSH1 0x40 MLOAD PUSH32 0x8C379A000000000000000000000000000000000000000000000000000000000 DUP2 MSTORE PUSH1 0x4 ADD PUSH2 0x1585 SWAP1 PUSH2 0x3716 JUMP JUMPDEST PUSH1 0x40 MLOAD DUP1 SWAP2 SUB SWAP1 REVERT JUMPDEST PUSH1 0x4 PUSH1 0x0 DUP3 DUP2 MSTORE PUSH1 0x20 ADD SWAP1 DUP2 MSTORE PUSH1 0x20 ADD PUSH1 0x0 KECCAK256 PUSH1 0x0 PUSH2 0x100 EXP DUP2 SLOAD SWAP1 PUSH20 0xFFFFFFFFFFFFFFFFFFFFFFFFFFFFFFFFFFFFFFFF MUL NOT AND SWAP1 SSTORE PUSH1 0x1 PUSH1 0x3 PUSH1 0x0 DUP6 PUSH20 0xFFFFFFFFFFFFFFFFFFFFFFFFFFFFFFFFFFFFFFFF AND PUSH20 0xFFFFFFFFFFFFFFFFFFFFFFFFFFFFFFFFFFFFFFFF AND DUP2 MSTORE PUSH1 0x20 ADD SWAP1 DUP2 MSTORE PUSH1 0x20 ADD PUSH1 0x0 KECCAK256 PUSH1 0x0 DUP3 DUP3 SLOAD SUB SWAP3 POP POP DUP2 SWAP1 SSTORE POP PUSH1 0x1 PUSH1 0x3 PUSH1 0x0 DUP5 PUSH20 0xFFFFFFFFFFFFFFFFFFFFFFFFFFFFFFFFFFFFFFFF AND PUSH20 0xFFFFFFFFFFFFFFFFFFFFFFFFFFFFFFFFFFFFFFFF AND DUP2 MSTORE PUSH1 0x20 ADD SWAP1 DUP2 MSTORE PUSH1 0x20 ADD PUSH1 0x0 KECCAK256 PUSH1 0x0 DUP3 DUP3 SLOAD ADD SWAP3 POP POP DUP2 SWAP1 SSTORE POP DUP2 PUSH1 0x2 PUSH1 0x0 DUP4 DUP2 MSTORE PUSH1 0x20 ADD SWAP1 DUP2 MSTORE PUSH1 0x20 ADD PUSH1 0x0 KECCAK256 PUSH1 0x0 PUSH2 0x100 EXP DUP2 SLOAD DUP2 PUSH20 0xFFFFFFFFFFFFFFFFFFFFFFFFFFFFFFFFFFFFFFFF MUL NOT AND SWAP1 DUP4 PUSH20 0xFFFFFFFFFFFFFFFFFFFFFFFFFFFFFFFFFFFFFFFF AND MUL OR SWAP1 SSTORE POP DUP1 DUP3 PUSH20 0xFFFFFFFFFFFFFFFFFFFFFFFFFFFFFFFFFFFFFFFF AND DUP5 PUSH20 0xFFFFFFFFFFFFFFFFFFFFFFFFFFFFFFFFFFFFFFFF AND PUSH32 0xDDF252AD1BE2C89B69C2B068FC378DAA952BA7F163C4A11628F55A4DF523B3EF PUSH1 0x40 MLOAD PUSH1 0x40 MLOAD DUP1 SWAP2 SUB SWAP1 LOG4 PUSH2 0x171A DUP4 DUP4 DUP4 PUSH1 0x1 PUSH2 0x1D9B JUMP JUMPDEST POP POP POP JUMP JUMPDEST PUSH2 0x1727 PUSH2 0x1260 JUMP JUMPDEST PUSH20 0xFFFFFFFFFFFFFFFFFFFFFFFFFFFFFFFFFFFFFFFF AND PUSH2 0x1745 PUSH2 0xDDB JUMP JUMPDEST PUSH20 0xFFFFFFFFFFFFFFFFFFFFFFFFFFFFFFFFFFFFFFFF AND EQ PUSH2 0x179B JUMPI PUSH1 0x40 MLOAD PUSH32 0x8C379A000000000000000000000000000000000000000000000000000000000 DUP2 MSTORE PUSH1 0x4 ADD PUSH2 0x1792 SWAP1 PUSH2 0x3814 JUMP JUMPDEST PUSH1 0x40 MLOAD DUP1 SWAP2 SUB SWAP1 REVERT JUMPDEST JUMP JUMPDEST PUSH2 0x17A5 PUSH2 0x1DA1 JUMP JUMPDEST PUSH1 0x0 PUSH1 0xA PUSH1 0x0 PUSH2 0x100 EXP DUP2 SLOAD DUP2 PUSH1 0xFF MUL NOT AND SWAP1 DUP4 ISZERO ISZERO MUL OR SWAP1 SSTORE POP PUSH32 0x5DB9EE0A495BF2E6FF9C91A7834C1BA4FDD244A5E8AA4E537BD38AEAE4B073AA PUSH2 0x17E9 PUSH2 0x1260 JUMP JUMPDEST PUSH1 0x40 MLOAD PUSH2 0x17F6 SWAP2 SWAP1 PUSH2 0x2AA2 JUMP JUMPDEST PUSH1 0x40 MLOAD DUP1 SWAP2 SUB SWAP1 LOG1 JUMP JUMPDEST PUSH1 0x0 PUSH1 0x2 PUSH1 0x0 DUP4 DUP2 MSTORE PUSH1 0x20 ADD SWAP1 DUP2 MSTORE PUSH1 0x20 ADD PUSH1 0x0 KECCAK256 PUSH1 0x0 SWAP1 SLOAD SWAP1 PUSH2 0x100 EXP SWAP1 DIV PUSH20 0xFFFFFFFFFFFFFFFFFFFFFFFFFFFFFFFFFFFFFFFF AND SWAP1 POP SWAP2 SWAP1 POP JUMP JUMPDEST PUSH1 0x0 PUSH1 0xA PUSH1 0x1 SWAP1 SLOAD SWAP1 PUSH2 0x100 EXP SWAP1 DIV PUSH20 0xFFFFFFFFFFFFFFFFFFFFFFFFFFFFFFFFFFFFFFFF AND SWAP1 POP DUP2 PUSH1 0xA PUSH1 0x1 PUSH2 0x100 EXP DUP2 SLOAD DUP2 PUSH20 0xFFFFFFFFFFFFFFFFFFFFFFFFFFFFFFFFFFFFFFFF MUL NOT AND SWAP1 DUP4 PUSH20 0xFFFFFFFFFFFFFFFFFFFFFFFFFFFFFFFFFFFFFFFF AND MUL OR SWAP1 SSTORE POP DUP2 PUSH20 0xFFFFFFFFFFFFFFFFFFFFFFFFFFFFFFFFFFFFFFFF AND DUP2 PUSH20 0xFFFFFFFFFFFFFFFFFFFFFFFFFFFFFFFFFFFFFFFF AND PUSH32 0x8BE0079C531659141344CD1FD0A4F28419497F9722A3DAAFE3B4186F6B6457E0 PUSH1 0x40 MLOAD PUSH1 0x40 MLOAD DUP1 SWAP2 SUB SWAP1 LOG3 POP POP JUMP JUMPDEST PUSH2 0x190B PUSH2 0x1DEA JUMP JUMPDEST PUSH1 0x1 PUSH1 0xA PUSH1 0x0 PUSH2 0x100 EXP DUP2 SLOAD DUP2 PUSH1 0xFF MUL NOT AND SWAP1 DUP4 ISZERO ISZERO MUL OR SWAP1 SSTORE POP PUSH32 0x62E78CEA01BEE320CD4E420270B5EA74000D11B0C9F74754EBDBFC544B05A258 PUSH2 0x194F PUSH2 0x1260 JUMP JUMPDEST PUSH1 0x40 MLOAD PUSH2 0x195C SWAP2 SWAP1 PUSH2 0x2AA2 JUMP JUMPDEST PUSH1 0x40 MLOAD DUP1 SWAP2 SUB SWAP1 LOG1 JUMP JUMPDEST DUP2 PUSH20 0xFFFFFFFFFFFFFFFFFFFFFFFFFFFFFFFFFFFFFFFF AND DUP4 PUSH20 0xFFFFFFFFFFFFFFFFFFFFFFFFFFFFFFFFFFFFFFFF AND SUB PUSH2 0x19D4 JUMPI PUSH1 0x40 MLOAD PUSH32 0x8C379A000000000000000000000000000000000000000000000000000000000 DUP2 MSTORE PUSH1 0x4 ADD PUSH2 0x19CB SWAP1 PUSH2 0x3880 JUMP JUMPDEST PUSH1 0x40 MLOAD DUP1 SWAP2 SUB SWAP1 REVERT JUMPDEST DUP1 PUSH1 0x5 PUSH1 0x0 DUP6 PUSH20 0xFFFFFFFFFFFFFFFFFFFFFFFFFFFFFFFFFFFFFFFF AND PUSH20 0xFFFFFFFFFFFFFFFFFFFFFFFFFFFFFFFFFFFFFFFF AND DUP2 MSTORE PUSH1 0x20 ADD SWAP1 DUP2 MSTORE PUSH1 0x20 ADD PUSH1 0x0 KECCAK256 PUSH1 0x0 DUP5 PUSH20 0xFFFFFFFFFFFFFFFFFFFFFFFFFFFFFFFFFFFFFFFF AND PUSH20 0xFFFFFFFFFFFFFFFFFFFFFFFFFFFFFFFFFFFFFFFF AND DUP2 MSTORE PUSH1 0x20 ADD SWAP1 DUP2 MSTORE PUSH1 0x20 ADD PUSH1 0x0 KECCAK256 PUSH1 0x0 PUSH2 0x100 EXP DUP2 SLOAD DUP2 PUSH1 0xFF MUL NOT AND SWAP1 DUP4 ISZERO ISZERO MUL OR SWAP1 SSTORE POP DUP2 PUSH20 0xFFFFFFFFFFFFFFFFFFFFFFFFFFFFFFFFFFFFFFFF AND DUP4 PUSH20 0xFFFFFFFFFFFFFFFFFFFFFFFFFFFFFFFFFFFFFFFF AND PUSH32 0x17307EAB39AB6107E8899845AD3D59BD9653F200F220920489CA2B5937696C31 DUP4 PUSH1 0x40 MLOAD PUSH2 0x1AC5 SWAP2 SWAP1 PUSH2 0x2931 JUMP JUMPDEST PUSH1 0x40 MLOAD DUP1 SWAP2 SUB SWAP1 LOG3 POP POP POP JUMP JUMPDEST PUSH2 0x1ADD DUP5 DUP5 DUP5 PUSH2 0x1426 JUMP JUMPDEST PUSH2 0x1AE9 DUP5 DUP5 DUP5 DUP5 PUSH2 0x1E34 JUMP JUMPDEST PUSH2 0x1B28 JUMPI PUSH1 0x40 MLOAD PUSH32 0x8C379A000000000000000000000000000000000000000000000000000000000 DUP2 MSTORE PUSH1 0x4 ADD PUSH2 0x1B1F SWAP1 PUSH2 0x3912 JUMP JUMPDEST PUSH1 0x40 MLOAD DUP1 SWAP2 SUB SWAP1 REVERT JUMPDEST POP POP POP POP JUMP JUMPDEST PUSH1 0x60 PUSH1 0x40 MLOAD DUP1 PUSH1 0x60 ADD PUSH1 0x40 MSTORE DUP1 PUSH1 0x36 DUP2 MSTORE PUSH1 0x20 ADD PUSH2 0x3CEA PUSH1 0x36 SWAP2 CODECOPY SWAP1 POP SWAP1 JUMP JUMPDEST PUSH1 0x60 PUSH1 0x0 PUSH1 0x1 PUSH2 0x1B5D DUP5 PUSH2 0x1FBB JUMP JUMPDEST ADD SWAP1 POP PUSH1 0x0 DUP2 PUSH8 0xFFFFFFFFFFFFFFFF DUP2 GT ISZERO PUSH2 0x1B7C JUMPI PUSH2 0x1B7B PUSH2 0x2C89 JUMP JUMPDEST JUMPDEST PUSH1 0x40 MLOAD SWAP1 DUP1 DUP3 MSTORE DUP1 PUSH1 0x1F ADD PUSH1 0x1F NOT AND PUSH1 0x20 ADD DUP3 ADD PUSH1 0x40 MSTORE DUP1 ISZERO PUSH2 0x1BAE JUMPI DUP2 PUSH1 0x20 ADD PUSH1 0x1 DUP3 MUL DUP1 CALLDATASIZE DUP4 CALLDATACOPY DUP1 DUP3 ADD SWAP2 POP POP SWAP1 POP JUMPDEST POP SWAP1 POP PUSH1 0x0 DUP3 PUSH1 0x20 ADD DUP3 ADD SWAP1 POP JUMPDEST PUSH1 0x1 ISZERO PUSH2 0x1C11 JUMPI DUP1 DUP1 PUSH1 0x1 SWAP1 SUB SWAP2 POP POP PUSH32 0x3031323334353637383961626364656600000000000000000000000000000000 PUSH1 0xA DUP7 MOD BYTE DUP2 MSTORE8 PUSH1 0xA DUP6 DUP2 PUSH2 0x1C05 JUMPI PUSH2 0x1C04 PUSH2 0x3932 JUMP JUMPDEST JUMPDEST DIV SWAP5 POP PUSH1 0x0 DUP6 SUB PUSH2 0x1BBC JUMPI JUMPDEST DUP2 SWAP4 POP POP POP POP SWAP2 SWAP1 POP JUMP JUMPDEST PUSH1 0x0 PUSH32 0x80AC58CD00000000000000000000000000000000000000000000000000000000 PUSH28 0xFFFFFFFFFFFFFFFFFFFFFFFFFFFFFFFFFFFFFFFFFFFFFFFFFFFFFFFF NOT AND DUP3 PUSH28 0xFFFFFFFFFFFFFFFFFFFFFFFFFFFFFFFFFFFFFFFFFFFFFFFFFFFFFFFF NOT AND EQ DUP1 PUSH2 0x1CE7 JUMPI POP PUSH32 0x5B5E139F00000000000000000000000000000000000000000000000000000000 PUSH28 0xFFFFFFFFFFFFFFFFFFFFFFFFFFFFFFFFFFFFFFFFFFFFFFFFFFFFFFFF NOT AND DUP3 PUSH28 0xFFFFFFFFFFFFFFFFFFFFFFFFFFFFFFFFFFFFFFFFFFFFFFFFFFFFFFFF NOT AND EQ JUMPDEST DUP1 PUSH2 0x1CF7 JUMPI POP PUSH2 0x1CF6 DUP3 PUSH2 0x210E JUMP JUMPDEST JUMPDEST SWAP1 POP SWAP2 SWAP1 POP JUMP JUMPDEST PUSH1 0x0 DUP1 PUSH20 0xFFFFFFFFFFFFFFFFFFFFFFFFFFFFFFFFFFFFFFFF AND PUSH2 0x1D20 DUP4 PUSH2 0x1800 JUMP JUMPDEST PUSH20 0xFFFFFFFFFFFFFFFFFFFFFFFFFFFFFFFFFFFFFFFF AND EQ ISZERO SWAP1 POP SWAP2 SWAP1 POP JUMP JUMPDEST PUSH1 0x0 DUP2 PUSH1 0x0 ADD SLOAD SWAP1 POP SWAP2 SWAP1 POP JUMP JUMPDEST PUSH1 0x1 DUP2 PUSH1 0x0 ADD PUSH1 0x0 DUP3 DUP3 SLOAD ADD SWAP3 POP POP DUP2 SWAP1 SSTORE POP POP JUMP JUMPDEST PUSH2 0x1D7D DUP3 DUP3 PUSH1 0x40 MLOAD DUP1 PUSH1 0x20 ADD PUSH1 0x40 MSTORE DUP1 PUSH1 0x0 DUP2 MSTORE POP PUSH2 0x2178 JUMP JUMPDEST POP POP JUMP JUMPDEST PUSH2 0x1D89 PUSH2 0x1DEA JUMP JUMPDEST PUSH2 0x1D95 DUP5 DUP5 DUP5 DUP5 PUSH2 0x21D3 JUMP JUMPDEST POP POP POP POP JUMP JUMPDEST POP POP POP POP JUMP JUMPDEST PUSH2 0x1DA9 PUSH2 0xC61 JUMP JUMPDEST PUSH2 0x1DE8 JUMPI PUSH1 0x40 MLOAD PUSH32 0x8C379A000000000000000000000000000000000000000000000000000000000 DUP2 MSTORE PUSH1 0x4 ADD PUSH2 0x1DDF SWAP1 PUSH2 0x39AD JUMP JUMPDEST PUSH1 0x40 MLOAD DUP1 SWAP2 SUB SWAP1 REVERT JUMPDEST JUMP JUMPDEST PUSH2 0x1DF2 PUSH2 0xC61 JUMP JUMPDEST ISZERO PUSH2 0x1E32 JUMPI PUSH1 0x40 MLOAD PUSH32 0x8C379A000000000000000000000000000000000000000000000000000000000 DUP2 MSTORE PUSH1 0x4 ADD PUSH2 0x1E29 SWAP1 PUSH2 0x3A19 JUMP JUMPDEST PUSH1 0x40 MLOAD DUP1 SWAP2 SUB SWAP1 REVERT JUMPDEST JUMP JUMPDEST PUSH1 0x0 PUSH2 0x1E55 DUP5 PUSH20 0xFFFFFFFFFFFFFFFFFFFFFFFFFFFFFFFFFFFFFFFF AND PUSH2 0x2331 JUMP JUMPDEST ISZERO PUSH2 0x1FAE JUMPI DUP4 PUSH20 0xFFFFFFFFFFFFFFFFFFFFFFFFFFFFFFFFFFFFFFFF AND PUSH4 0x150B7A02 PUSH2 0x1E7E PUSH2 0x1260 JUMP JUMPDEST DUP8 DUP7 DUP7 PUSH1 0x40 MLOAD DUP6 PUSH4 0xFFFFFFFF AND PUSH1 0xE0 SHL DUP2 MSTORE PUSH1 0x4 ADD PUSH2 0x1EA0 SWAP5 SWAP4 SWAP3 SWAP2 SWAP1 PUSH2 0x3A8E JUMP JUMPDEST PUSH1 0x20 PUSH1 0x40 MLOAD DUP1 DUP4 SUB DUP2 PUSH1 0x0 DUP8 GAS CALL SWAP3 POP POP POP DUP1 ISZERO PUSH2 0x1EDC JUMPI POP PUSH1 0x40 MLOAD RETURNDATASIZE PUSH1 0x1F NOT PUSH1 0x1F DUP3 ADD AND DUP3 ADD DUP1 PUSH1 0x40 MSTORE POP DUP2 ADD SWAP1 PUSH2 0x1ED9 SWAP2 SWAP1 PUSH2 0x3AEF JUMP JUMPDEST PUSH1 0x1 JUMPDEST PUSH2 0x1F5E JUMPI RETURNDATASIZE DUP1 PUSH1 0x0 DUP2 EQ PUSH2 0x1F0C JUMPI PUSH1 0x40 MLOAD SWAP2 POP PUSH1 0x1F NOT PUSH1 0x3F RETURNDATASIZE ADD AND DUP3 ADD PUSH1 0x40 MSTORE RETURNDATASIZE DUP3 MSTORE RETURNDATASIZE PUSH1 0x0 PUSH1 0x20 DUP5 ADD RETURNDATACOPY PUSH2 0x1F11 JUMP JUMPDEST PUSH1 0x60 SWAP2 POP JUMPDEST POP PUSH1 0x0 DUP2 MLOAD SUB PUSH2 0x1F56 JUMPI PUSH1 0x40 MLOAD PUSH32 0x8C379A000000000000000000000000000000000000000000000000000000000 DUP2 MSTORE PUSH1 0x4 ADD PUSH2 0x1F4D SWAP1 PUSH2 0x3912 JUMP JUMPDEST PUSH1 0x40 MLOAD DUP1 SWAP2 SUB SWAP1 REVERT JUMPDEST DUP1 MLOAD DUP2 PUSH1 0x20 ADD REVERT JUMPDEST PUSH4 0x150B7A02 PUSH1 0xE0 SHL PUSH28 0xFFFFFFFFFFFFFFFFFFFFFFFFFFFFFFFFFFFFFFFFFFFFFFFFFFFFFFFF NOT AND DUP2 PUSH28 0xFFFFFFFFFFFFFFFFFFFFFFFFFFFFFFFFFFFFFFFFFFFFFFFFFFFFFFFF NOT AND EQ SWAP2 POP POP PUSH2 0x1FB3 JUMP JUMPDEST PUSH1 0x1 SWAP1 POP JUMPDEST SWAP5 SWAP4 POP POP POP POP JUMP JUMPDEST PUSH1 0x0 DUP1 PUSH1 0x0 SWAP1 POP PUSH27 0x184F03E93FF9F4DAA797ED6E38ED64BF6A1F010000000000000000 DUP4 LT PUSH2 0x2019 JUMPI PUSH27 0x184F03E93FF9F4DAA797ED6E38ED64BF6A1F010000000000000000 DUP4 DUP2 PUSH2 0x200F JUMPI PUSH2 0x200E PUSH2 0x3932 JUMP JUMPDEST JUMPDEST DIV SWAP3 POP PUSH1 0x40 DUP2 ADD SWAP1 POP JUMPDEST PUSH14 0x4EE2D6D415B85ACEF8100000000 DUP4 LT PUSH2 0x2056 JUMPI PUSH14 0x4EE2D6D415B85ACEF8100000000 DUP4 DUP2 PUSH2 0x204C JUMPI PUSH2 0x204B PUSH2 0x3932 JUMP JUMPDEST JUMPDEST DIV SWAP3 POP PUSH1 0x20 DUP2 ADD SWAP1 POP JUMPDEST PUSH7 0x2386F26FC10000 DUP4 LT PUSH2 0x2085 JUMPI PUSH7 0x2386F26FC10000 DUP4 DUP2 PUSH2 0x207B JUMPI PUSH2 0x207A PUSH2 0x3932 JUMP JUMPDEST JUMPDEST DIV SWAP3 POP PUSH1 0x10 DUP2 ADD SWAP1 POP JUMPDEST PUSH4 0x5F5E100 DUP4 LT PUSH2 0x20AE JUMPI PUSH4 0x5F5E100 DUP4 DUP2 PUSH2 0x20A4 JUMPI PUSH2 0x20A3 PUSH2 0x3932 JUMP JUMPDEST JUMPDEST DIV SWAP3 POP PUSH1 0x8 DUP2 ADD SWAP1 POP JUMPDEST PUSH2 0x2710 DUP4 LT PUSH2 0x20D3 JUMPI PUSH2 0x2710 DUP4 DUP2 PUSH2 0x20C9 JUMPI PUSH2 0x20C8 PUSH2 0x3932 JUMP JUMPDEST JUMPDEST DIV SWAP3 POP PUSH1 0x4 DUP2 ADD SWAP1 POP JUMPDEST PUSH1 0x64 DUP4 LT PUSH2 0x20F6 JUMPI PUSH1 0x64 DUP4 DUP2 PUSH2 0x20EC JUMPI PUSH2 0x20EB PUSH2 0x3932 JUMP JUMPDEST JUMPDEST DIV SWAP3 POP PUSH1 0x2 DUP2 ADD SWAP1 POP JUMPDEST PUSH1 0xA DUP4 LT PUSH2 0x2105 JUMPI PUSH1 0x1 DUP2 ADD SWAP1 POP JUMPDEST DUP1 SWAP2 POP POP SWAP2 SWAP1 POP JUMP JUMPDEST PUSH1 0x0 PUSH32 0x1FFC9A700000000000000000000000000000000000000000000000000000000 PUSH28 0xFFFFFFFFFFFFFFFFFFFFFFFFFFFFFFFFFFFFFFFFFFFFFFFFFFFFFFFF NOT AND DUP3 PUSH28 0xFFFFFFFFFFFFFFFFFFFFFFFFFFFFFFFFFFFFFFFFFFFFFFFFFFFFFFFF NOT AND EQ SWAP1 POP SWAP2 SWAP1 POP JUMP JUMPDEST PUSH2 0x2182 DUP4 DUP4 PUSH2 0x2354 JUMP JUMPDEST PUSH2 0x218F PUSH1 0x0 DUP5 DUP5 DUP5 PUSH2 0x1E34 JUMP JUMPDEST PUSH2 0x21CE JUMPI PUSH1 0x40 MLOAD PUSH32 0x8C379A000000000000000000000000000000000000000000000000000000000 DUP2 MSTORE PUSH1 0x4 ADD PUSH2 0x21C5 SWAP1 PUSH2 0x3912 JUMP JUMPDEST PUSH1 0x40 MLOAD DUP1 SWAP2 SUB SWAP1 REVERT JUMPDEST POP POP POP JUMP JUMPDEST PUSH2 0x21DF DUP5 DUP5 DUP5 DUP5 PUSH2 0x2571 JUMP JUMPDEST PUSH1 0x1 DUP2 GT ISZERO PUSH2 0x2223 JUMPI PUSH1 0x40 MLOAD PUSH32 0x8C379A000000000000000000000000000000000000000000000000000000000 DUP2 MSTORE PUSH1 0x4 ADD PUSH2 0x221A SWAP1 PUSH2 0x3B8E JUMP JUMPDEST PUSH1 0x40 MLOAD DUP1 SWAP2 SUB SWAP1 REVERT JUMPDEST PUSH1 0x0 DUP3 SWAP1 POP PUSH1 0x0 PUSH20 0xFFFFFFFFFFFFFFFFFFFFFFFFFFFFFFFFFFFFFFFF AND DUP6 PUSH20 0xFFFFFFFFFFFFFFFFFFFFFFFFFFFFFFFFFFFFFFFF AND SUB PUSH2 0x226A JUMPI PUSH2 0x2265 DUP2 PUSH2 0x2577 JUMP JUMPDEST PUSH2 0x22A9 JUMP JUMPDEST DUP4 PUSH20 0xFFFFFFFFFFFFFFFFFFFFFFFFFFFFFFFFFFFFFFFF AND DUP6 PUSH20 0xFFFFFFFFFFFFFFFFFFFFFFFFFFFFFFFFFFFFFFFF AND EQ PUSH2 0x22A8 JUMPI PUSH2 0x22A7 DUP6 DUP3 PUSH2 0x25C0 JUMP JUMPDEST JUMPDEST JUMPDEST PUSH1 0x0 PUSH20 0xFFFFFFFFFFFFFFFFFFFFFFFFFFFFFFFFFFFFFFFF AND DUP5 PUSH20 0xFFFFFFFFFFFFFFFFFFFFFFFFFFFFFFFFFFFFFFFF AND SUB PUSH2 0x22EB JUMPI PUSH2 0x22E6 DUP2 PUSH2 0x272D JUMP JUMPDEST PUSH2 0x232A JUMP JUMPDEST DUP5 PUSH20 0xFFFFFFFFFFFFFFFFFFFFFFFFFFFFFFFFFFFFFFFF AND DUP5 PUSH20 0xFFFFFFFFFFFFFFFFFFFFFFFFFFFFFFFFFFFFFFFF AND EQ PUSH2 0x2329 JUMPI PUSH2 0x2328 DUP5 DUP3 PUSH2 0x27FE JUMP JUMPDEST JUMPDEST JUMPDEST POP POP POP POP POP JUMP JUMPDEST PUSH1 0x0 DUP1 DUP3 PUSH20 0xFFFFFFFFFFFFFFFFFFFFFFFFFFFFFFFFFFFFFFFF AND EXTCODESIZE GT SWAP1 POP SWAP2 SWAP1 POP JUMP JUMPDEST PUSH1 0x0 PUSH20 0xFFFFFFFFFFFFFFFFFFFFFFFFFFFFFFFFFFFFFFFF AND DUP3 PUSH20 0xFFFFFFFFFFFFFFFFFFFFFFFFFFFFFFFFFFFFFFFF AND SUB PUSH2 0x23C3 JUMPI PUSH1 0x40 MLOAD PUSH32 0x8C379A000000000000000000000000000000000000000000000000000000000 DUP2 MSTORE PUSH1 0x4 ADD PUSH2 0x23BA SWAP1 PUSH2 0x3BFA JUMP JUMPDEST PUSH1 0x40 MLOAD DUP1 SWAP2 SUB SWAP1 REVERT JUMPDEST PUSH2 0x23CC DUP2 PUSH2 0x1CFE JUMP JUMPDEST ISZERO PUSH2 0x240C JUMPI PUSH1 0x40 MLOAD PUSH32 0x8C379A000000000000000000000000000000000000000000000000000000000 DUP2 MSTORE PUSH1 0x4 ADD PUSH2 0x2403 SWAP1 PUSH2 0x3C66 JUMP JUMPDEST PUSH1 0x40 MLOAD DUP1 SWAP2 SUB SWAP1 REVERT JUMPDEST PUSH2 0x241A PUSH1 0x0 DUP4 DUP4 PUSH1 0x1 PUSH2 0x1D81 JUMP JUMPDEST PUSH2 0x2423 DUP2 PUSH2 0x1CFE JUMP JUMPDEST ISZERO PUSH2 0x2463 JUMPI PUSH1 0x40 MLOAD PUSH32 0x8C379A000000000000000000000000000000000000000000000000000000000 DUP2 MSTORE PUSH1 0x4 ADD PUSH2 0x245A SWAP1 PUSH2 0x3C66 JUMP JUMPDEST PUSH1 0x40 MLOAD DUP1 SWAP2 SUB SWAP1 REVERT JUMPDEST PUSH1 0x1 PUSH1 0x3 PUSH1 0x0 DUP5 PUSH20 0xFFFFFFFFFFFFFFFFFFFFFFFFFFFFFFFFFFFFFFFF AND PUSH20 0xFFFFFFFFFFFFFFFFFFFFFFFFFFFFFFFFFFFFFFFF AND DUP2 MSTORE PUSH1 0x20 ADD SWAP1 DUP2 MSTORE PUSH1 0x20 ADD PUSH1 0x0 KECCAK256 PUSH1 0x0 DUP3 DUP3 SLOAD ADD SWAP3 POP POP DUP2 SWAP1 SSTORE POP DUP2 PUSH1 0x2 PUSH1 0x0 DUP4 DUP2 MSTORE PUSH1 0x20 ADD SWAP1 DUP2 MSTORE PUSH1 0x20 ADD PUSH1 0x0 KECCAK256 PUSH1 0x0 PUSH2 0x100 EXP DUP2 SLOAD DUP2 PUSH20 0xFFFFFFFFFFFFFFFFFFFFFFFFFFFFFFFFFFFFFFFF MUL NOT AND SWAP1 DUP4 PUSH20 0xFFFFFFFFFFFFFFFFFFFFFFFFFFFFFFFFFFFFFFFF AND MUL OR SWAP1 SSTORE POP DUP1 DUP3 PUSH20 0xFFFFFFFFFFFFFFFFFFFFFFFFFFFFFFFFFFFFFFFF AND PUSH1 0x0 PUSH20 0xFFFFFFFFFFFFFFFFFFFFFFFFFFFFFFFFFFFFFFFF AND PUSH32 0xDDF252AD1BE2C89B69C2B068FC378DAA952BA7F163C4A11628F55A4DF523B3EF PUSH1 0x40 MLOAD PUSH1 0x40 MLOAD DUP1 SWAP2 SUB SWAP1 LOG4 PUSH2 0x256D PUSH1 0x0 DUP4 DUP4 PUSH1 0x1 PUSH2 0x1D9B JUMP JUMPDEST POP POP JUMP JUMPDEST POP POP POP POP JUMP JUMPDEST PUSH1 0x8 DUP1 SLOAD SWAP1 POP PUSH1 0x9 PUSH1 0x0 DUP4 DUP2 MSTORE PUSH1 0x20 ADD SWAP1 DUP2 MSTORE PUSH1 0x20 ADD PUSH1 0x0 KECCAK256 DUP2 SWAP1 SSTORE POP PUSH1 0x8 DUP2 SWAP1 DUP1 PUSH1 0x1 DUP2 SLOAD ADD DUP1 DUP3 SSTORE DUP1 SWAP2 POP POP PUSH1 0x1 SWAP1 SUB SWAP1 PUSH1 0x0 MSTORE PUSH1 0x20 PUSH1 0x0 KECCAK256 ADD PUSH1 0x0 SWAP1 SWAP2 SWAP1 SWAP2 SWAP1 SWAP2 POP SSTORE POP JUMP JUMPDEST PUSH1 0x0 PUSH1 0x1 PUSH2 0x25CD DUP5 PUSH2 0xCFE JUMP JUMPDEST PUSH2 0x25D7 SWAP2 SWAP1 PUSH2 0x3C86 JUMP JUMPDEST SWAP1 POP PUSH1 0x0 PUSH1 0x7 PUSH1 0x0 DUP5 DUP2 MSTORE PUSH1 0x20 ADD SWAP1 DUP2 MSTORE PUSH1 0x20 ADD PUSH1 0x0 KECCAK256 SLOAD SWAP1 POP DUP2 DUP2 EQ PUSH2 0x26BC JUMPI PUSH1 0x0 PUSH1 0x6 PUSH1 0x0 DUP7 PUSH20 0xFFFFFFFFFFFFFFFFFFFFFFFFFFFFFFFFFFFFFFFF AND PUSH20 0xFFFFFFFFFFFFFFFFFFFFFFFFFFFFFFFFFFFFFFFF AND DUP2 MSTORE PUSH1 0x20 ADD SWAP1 DUP2 MSTORE PUSH1 0x20 ADD PUSH1 0x0 KECCAK256 PUSH1 0x0 DUP5 DUP2 MSTORE PUSH1 0x20 ADD SWAP1 DUP2 MSTORE PUSH1 0x20 ADD PUSH1 0x0 KECCAK256 SLOAD SWAP1 POP DUP1 PUSH1 0x6 PUSH1 0x0 DUP8 PUSH20 0xFFFFFFFFFFFFFFFFFFFFFFFFFFFFFFFFFFFFFFFF AND PUSH20 0xFFFFFFFFFFFFFFFFFFFFFFFFFFFFFFFFFFFFFFFF AND DUP2 MSTORE PUSH1 0x20 ADD SWAP1 DUP2 MSTORE PUSH1 0x20 ADD PUSH1 0x0 KECCAK256 PUSH1 0x0 DUP5 DUP2 MSTORE PUSH1 0x20 ADD SWAP1 DUP2 MSTORE PUSH1 0x20 ADD PUSH1 0x0 KECCAK256 DUP2 SWAP1 SSTORE POP DUP2 PUSH1 0x7 PUSH1 0x0 DUP4 DUP2 MSTORE PUSH1 0x20 ADD SWAP1 DUP2 MSTORE PUSH1 0x20 ADD PUSH1 0x0 KECCAK256 DUP2 SWAP1 SSTORE POP POP JUMPDEST PUSH1 0x7 PUSH1 0x0 DUP5 DUP2 MSTORE PUSH1 0x20 ADD SWAP1 DUP2 MSTORE PUSH1 0x20 ADD PUSH1 0x0 KECCAK256 PUSH1 0x0 SWAP1 SSTORE PUSH1 0x6 PUSH1 0x0 DUP6 PUSH20 0xFFFFFFFFFFFFFFFFFFFFFFFFFFFFFFFFFFFFFFFF AND PUSH20 0xFFFFFFFFFFFFFFFFFFFFFFFFFFFFFFFFFFFFFFFF AND DUP2 MSTORE PUSH1 0x20 ADD SWAP1 DUP2 MSTORE PUSH1 0x20 ADD PUSH1 0x0 KECCAK256 PUSH1 0x0 DUP4 DUP2 MSTORE PUSH1 0x20 ADD SWAP1 DUP2 MSTORE PUSH1 0x20 ADD PUSH1 0x0 KECCAK256 PUSH1 0x0 SWAP1 SSTORE POP POP POP POP JUMP JUMPDEST PUSH1 0x0 PUSH1 0x1 PUSH1 0x8 DUP1 SLOAD SWAP1 POP PUSH2 0x2741 SWAP2 SWAP1 PUSH2 0x3C86 JUMP JUMPDEST SWAP1 POP PUSH1 0x0 PUSH1 0x9 PUSH1 0x0 DUP5 DUP2 MSTORE PUSH1 0x20 ADD SWAP1 DUP2 MSTORE PUSH1 0x20 ADD PUSH1 0x0 KECCAK256 SLOAD SWAP1 POP PUSH1 0x0 PUSH1 0x8 DUP4 DUP2 SLOAD DUP2 LT PUSH2 0x2771 JUMPI PUSH2 0x2770 PUSH2 0x33A2 JUMP JUMPDEST JUMPDEST SWAP1 PUSH1 0x0 MSTORE PUSH1 0x20 PUSH1 0x0 KECCAK256 ADD SLOAD SWAP1 POP DUP1 PUSH1 0x8 DUP4 DUP2 SLOAD DUP2 LT PUSH2 0x2793 JUMPI PUSH2 0x2792 PUSH2 0x33A2 JUMP JUMPDEST JUMPDEST SWAP1 PUSH1 0x0 MSTORE PUSH1 0x20 PUSH1 0x0 KECCAK256 ADD DUP2 SWAP1 SSTORE POP DUP2 PUSH1 0x9 PUSH1 0x0 DUP4 DUP2 MSTORE PUSH1 0x20 ADD SWAP1 DUP2 MSTORE PUSH1 0x20 ADD PUSH1 0x0 KECCAK256 DUP2 SWAP1 SSTORE POP PUSH1 0x9 PUSH1 0x0 DUP6 DUP2 MSTORE PUSH1 0x20 ADD SWAP1 DUP2 MSTORE PUSH1 0x20 ADD PUSH1 0x0 KECCAK256 PUSH1 0x0 SWAP1 SSTORE PUSH1 0x8 DUP1 SLOAD DUP1 PUSH2 0x27E2 JUMPI PUSH2 0x27E1 PUSH2 0x3CBA JUMP JUMPDEST JUMPDEST PUSH1 0x1 SWAP1 SUB DUP2 DUP2 SWAP1 PUSH1 0x0 MSTORE PUSH1 0x20 PUSH1 0x0 KECCAK256 ADD PUSH1 0x0 SWAP1 SSTORE SWAP1 SSTORE POP POP POP POP JUMP JUMPDEST PUSH1 0x0 PUSH2 0x2809 DUP4 PUSH2 0xCFE JUMP JUMPDEST SWAP1 POP DUP2 PUSH1 0x6 PUSH1 0x0 DUP6 PUSH20 0xFFFFFFFFFFFFFFFFFFFFFFFFFFFFFFFFFFFFFFFF AND PUSH20 0xFFFFFFFFFFFFFFFFFFFFFFFFFFFFFFFFFFFFFFFF AND DUP2 MSTORE PUSH1 0x20 ADD SWAP1 DUP2 MSTORE PUSH1 0x20 ADD PUSH1 0x0 KECCAK256 PUSH1 0x0 DUP4 DUP2 MSTORE PUSH1 0x20 ADD SWAP1 DUP2 MSTORE PUSH1 0x20 ADD PUSH1 0x0 KECCAK256 DUP2 SWAP1 SSTORE POP DUP1 PUSH1 0x7 PUSH1 0x0 DUP5 DUP2 MSTORE PUSH1 0x20 ADD SWAP1 DUP2 MSTORE PUSH1 0x20 ADD PUSH1 0x0 KECCAK256 DUP2 SWAP1 SSTORE POP POP POP POP JUMP JUMPDEST PUSH1 0x0 PUSH1 0x40 MLOAD SWAP1 POP SWAP1 JUMP JUMPDEST PUSH1 0x0 DUP1 REVERT JUMPDEST PUSH1 0x0 DUP1 REVERT JUMPDEST PUSH1 0x0 PUSH32 0xFFFFFFFF00000000000000000000000000000000000000000000000000000000 DUP3 AND SWAP1 POP SWAP2 SWAP1 POP JUMP JUMPDEST PUSH2 0x28C6 DUP2 PUSH2 0x2891 JUMP JUMPDEST DUP2 EQ PUSH2 0x28D1 JUMPI PUSH1 0x0 DUP1 REVERT JUMPDEST POP JUMP JUMPDEST PUSH1 0x0 DUP2 CALLDATALOAD SWAP1 POP PUSH2 0x28E3 DUP2 PUSH2 0x28BD JUMP JUMPDEST SWAP3 SWAP2 POP POP JUMP JUMPDEST PUSH1 0x0 PUSH1 0x20 DUP3 DUP5 SUB SLT ISZERO PUSH2 0x28FF JUMPI PUSH2 0x28FE PUSH2 0x2887 JUMP JUMPDEST JUMPDEST PUSH1 0x0 PUSH2 0x290D DUP5 DUP3 DUP6 ADD PUSH2 0x28D4 JUMP JUMPDEST SWAP2 POP POP SWAP3 SWAP2 POP POP JUMP JUMPDEST PUSH1 0x0 DUP2 ISZERO ISZERO SWAP1 POP SWAP2 SWAP1 POP JUMP JUMPDEST PUSH2 0x292B DUP2 PUSH2 0x2916 JUMP JUMPDEST DUP3 MSTORE POP POP JUMP JUMPDEST PUSH1 0x0 PUSH1 0x20 DUP3 ADD SWAP1 POP PUSH2 0x2946 PUSH1 0x0 DUP4 ADD DUP5 PUSH2 0x2922 JUMP JUMPDEST SWAP3 SWAP2 POP POP JUMP JUMPDEST PUSH1 0x0 DUP2 MLOAD SWAP1 POP SWAP2 SWAP1 POP JUMP JUMPDEST PUSH1 0x0 DUP3 DUP3 MSTORE PUSH1 0x20 DUP3 ADD SWAP1 POP SWAP3 SWAP2 POP POP JUMP JUMPDEST PUSH1 0x0 JUMPDEST DUP4 DUP2 LT ISZERO PUSH2 0x2986 JUMPI DUP1 DUP3 ADD MLOAD DUP2 DUP5 ADD MSTORE PUSH1 0x20 DUP2 ADD SWAP1 POP PUSH2 0x296B JUMP JUMPDEST PUSH1 0x0 DUP5 DUP5 ADD MSTORE POP POP POP POP JUMP JUMPDEST PUSH1 0x0 PUSH1 0x1F NOT PUSH1 0x1F DUP4 ADD AND SWAP1 POP SWAP2 SWAP1 POP JUMP JUMPDEST PUSH1 0x0 PUSH2 0x29AE DUP3 PUSH2 0x294C JUMP JUMPDEST PUSH2 0x29B8 DUP2 DUP6 PUSH2 0x2957 JUMP JUMPDEST SWAP4 POP PUSH2 0x29C8 DUP2 DUP6 PUSH1 0x20 DUP7 ADD PUSH2 0x2968 JUMP JUMPDEST PUSH2 0x29D1 DUP2 PUSH2 0x2992 JUMP JUMPDEST DUP5 ADD SWAP2 POP POP SWAP3 SWAP2 POP POP JUMP JUMPDEST PUSH1 0x0 PUSH1 0x20 DUP3 ADD SWAP1 POP DUP2 DUP2 SUB PUSH1 0x0 DUP4 ADD MSTORE PUSH2 0x29F6 DUP2 DUP5 PUSH2 0x29A3 JUMP JUMPDEST SWAP1 POP SWAP3 SWAP2 POP POP JUMP JUMPDEST PUSH1 0x0 DUP2 SWAP1 POP SWAP2 SWAP1 POP JUMP JUMPDEST PUSH2 0x2A11 DUP2 PUSH2 0x29FE JUMP JUMPDEST DUP2 EQ PUSH2 0x2A1C JUMPI PUSH1 0x0 DUP1 REVERT JUMPDEST POP JUMP JUMPDEST PUSH1 0x0 DUP2 CALLDATALOAD SWAP1 POP PUSH2 0x2A2E DUP2 PUSH2 0x2A08 JUMP JUMPDEST SWAP3 SWAP2 POP POP JUMP JUMPDEST PUSH1 0x0 PUSH1 0x20 DUP3 DUP5 SUB SLT ISZERO PUSH2 0x2A4A JUMPI PUSH2 0x2A49 PUSH2 0x2887 JUMP JUMPDEST JUMPDEST PUSH1 0x0 PUSH2 0x2A58 DUP5 DUP3 DUP6 ADD PUSH2 0x2A1F JUMP JUMPDEST SWAP2 POP POP SWAP3 SWAP2 POP POP JUMP JUMPDEST PUSH1 0x0 PUSH20 0xFFFFFFFFFFFFFFFFFFFFFFFFFFFFFFFFFFFFFFFF DUP3 AND SWAP1 POP SWAP2 SWAP1 POP JUMP JUMPDEST PUSH1 0x0 PUSH2 0x2A8C DUP3 PUSH2 0x2A61 JUMP JUMPDEST SWAP1 POP SWAP2 SWAP1 POP JUMP JUMPDEST PUSH2 0x2A9C DUP2 PUSH2 0x2A81 JUMP JUMPDEST DUP3 MSTORE POP POP JUMP JUMPDEST PUSH1 0x0 PUSH1 0x20 DUP3 ADD SWAP1 POP PUSH2 0x2AB7 PUSH1 0x0 DUP4 ADD DUP5 PUSH2 0x2A93 JUMP JUMPDEST SWAP3 SWAP2 POP POP JUMP JUMPDEST PUSH2 0x2AC6 DUP2 PUSH2 0x2A81 JUMP JUMPDEST DUP2 EQ PUSH2 0x2AD1 JUMPI PUSH1 0x0 DUP1 REVERT JUMPDEST POP JUMP JUMPDEST PUSH1 0x0 DUP2 CALLDATALOAD SWAP1 POP PUSH2 0x2AE3 DUP2 PUSH2 0x2ABD JUMP JUMPDEST SWAP3 SWAP2 POP POP JUMP JUMPDEST PUSH1 0x0 DUP1 PUSH1 0x40 DUP4 DUP6 SUB SLT ISZERO PUSH2 0x2B00 JUMPI PUSH2 0x2AFF PUSH2 0x2887 JUMP JUMPDEST JUMPDEST PUSH1 0x0 PUSH2 0x2B0E DUP6 DUP3 DUP7 ADD PUSH2 0x2AD4 JUMP JUMPDEST SWAP3 POP POP PUSH1 0x20 PUSH2 0x2B1F DUP6 DUP3 DUP7 ADD PUSH2 0x2A1F JUMP JUMPDEST SWAP2 POP POP SWAP3 POP SWAP3 SWAP1 POP JUMP JUMPDEST PUSH2 0x2B32 DUP2 PUSH2 0x29FE JUMP JUMPDEST DUP3 MSTORE POP POP JUMP JUMPDEST PUSH1 0x0 PUSH1 0x20 DUP3 ADD SWAP1 POP PUSH2 0x2B4D PUSH1 0x0 DUP4 ADD DUP5 PUSH2 0x2B29 JUMP JUMPDEST SWAP3 SWAP2 POP POP JUMP JUMPDEST PUSH1 0x0 DUP1 PUSH1 0x0 PUSH1 0x60 DUP5 DUP7 SUB SLT ISZERO PUSH2 0x2B6C JUMPI PUSH2 0x2B6B PUSH2 0x2887 JUMP JUMPDEST JUMPDEST PUSH1 0x0 PUSH2 0x2B7A DUP7 DUP3 DUP8 ADD PUSH2 0x2AD4 JUMP JUMPDEST SWAP4 POP POP PUSH1 0x20 PUSH2 0x2B8B DUP7 DUP3 DUP8 ADD PUSH2 0x2AD4 JUMP JUMPDEST SWAP3 POP POP PUSH1 0x40 PUSH2 0x2B9C DUP7 DUP3 DUP8 ADD PUSH2 0x2A1F JUMP JUMPDEST SWAP2 POP POP SWAP3 POP SWAP3 POP SWAP3 JUMP JUMPDEST PUSH1 0x0 PUSH1 0x20 DUP3 DUP5 SUB SLT ISZERO PUSH2 0x2BBC JUMPI PUSH2 0x2BBB PUSH2 0x2887 JUMP JUMPDEST JUMPDEST PUSH1 0x0 PUSH2 0x2BCA DUP5 DUP3 DUP6 ADD PUSH2 0x2AD4 JUMP JUMPDEST SWAP2 POP POP SWAP3 SWAP2 POP POP JUMP JUMPDEST PUSH2 0x2BDC DUP2 PUSH2 0x2916 JUMP JUMPDEST DUP2 EQ PUSH2 0x2BE7 JUMPI PUSH1 0x0 DUP1 REVERT JUMPDEST POP JUMP JUMPDEST PUSH1 0x0 DUP2 CALLDATALOAD SWAP1 POP PUSH2 0x2BF9 DUP2 PUSH2 0x2BD3 JUMP JUMPDEST SWAP3 SWAP2 POP POP JUMP JUMPDEST PUSH1 0x0 DUP1 PUSH1 0x40 DUP4 DUP6 SUB SLT ISZERO PUSH2 0x2C16 JUMPI PUSH2 0x2C15 PUSH2 0x2887 JUMP JUMPDEST JUMPDEST PUSH1 0x0 PUSH2 0x2C24 DUP6 DUP3 DUP7 ADD PUSH2 0x2BEA JUMP JUMPDEST SWAP3 POP POP PUSH1 0x20 PUSH2 0x2C35 DUP6 DUP3 DUP7 ADD PUSH2 0x2BEA JUMP JUMPDEST SWAP2 POP POP SWAP3 POP SWAP3 SWAP1 POP JUMP JUMPDEST PUSH1 0x0 DUP1 PUSH1 0x40 DUP4 DUP6 SUB SLT ISZERO PUSH2 0x2C56 JUMPI PUSH2 0x2C55 PUSH2 0x2887 JUMP JUMPDEST JUMPDEST PUSH1 0x0 PUSH2 0x2C64 DUP6 DUP3 DUP7 ADD PUSH2 0x2AD4 JUMP JUMPDEST SWAP3 POP POP PUSH1 0x20 PUSH2 0x2C75 DUP6 DUP3 DUP7 ADD PUSH2 0x2BEA JUMP JUMPDEST SWAP2 POP POP SWAP3 POP SWAP3 SWAP1 POP JUMP JUMPDEST PUSH1 0x0 DUP1 REVERT JUMPDEST PUSH1 0x0 DUP1 REVERT JUMPDEST PUSH32 0x4E487B7100000000000000000000000000000000000000000000000000000000 PUSH1 0x0 MSTORE PUSH1 0x41 PUSH1 0x4 MSTORE PUSH1 0x24 PUSH1 0x0 REVERT JUMPDEST PUSH2 0x2CC1 DUP3 PUSH2 0x2992 JUMP JUMPDEST DUP2 ADD DUP2 DUP2 LT PUSH8 0xFFFFFFFFFFFFFFFF DUP3 GT OR ISZERO PUSH2 0x2CE0 JUMPI PUSH2 0x2CDF PUSH2 0x2C89 JUMP JUMPDEST JUMPDEST DUP1 PUSH1 0x40 MSTORE POP POP POP JUMP JUMPDEST PUSH1 0x0 PUSH2 0x2CF3 PUSH2 0x287D JUMP JUMPDEST SWAP1 POP PUSH2 0x2CFF DUP3 DUP3 PUSH2 0x2CB8 JUMP JUMPDEST SWAP2 SWAP1 POP JUMP JUMPDEST PUSH1 0x0 PUSH8 0xFFFFFFFFFFFFFFFF DUP3 GT ISZERO PUSH2 0x2D1F JUMPI PUSH2 0x2D1E PUSH2 0x2C89 JUMP JUMPDEST JUMPDEST PUSH2 0x2D28 DUP3 PUSH2 0x2992 JUMP JUMPDEST SWAP1 POP PUSH1 0x20 DUP2 ADD SWAP1 POP SWAP2 SWAP1 POP JUMP JUMPDEST DUP3 DUP2 DUP4 CALLDATACOPY PUSH1 0x0 DUP4 DUP4 ADD MSTORE POP POP POP JUMP JUMPDEST PUSH1 0x0 PUSH2 0x2D57 PUSH2 0x2D52 DUP5 PUSH2 0x2D04 JUMP JUMPDEST PUSH2 0x2CE9 JUMP JUMPDEST SWAP1 POP DUP3 DUP2 MSTORE PUSH1 0x20 DUP2 ADD DUP5 DUP5 DUP5 ADD GT ISZERO PUSH2 0x2D73 JUMPI PUSH2 0x2D72 PUSH2 0x2C84 JUMP JUMPDEST JUMPDEST PUSH2 0x2D7E DUP5 DUP3 DUP6 PUSH2 0x2D35 JUMP JUMPDEST POP SWAP4 SWAP3 POP POP POP JUMP JUMPDEST PUSH1 0x0 DUP3 PUSH1 0x1F DUP4 ADD SLT PUSH2 0x2D9B JUMPI PUSH2 0x2D9A PUSH2 0x2C7F JUMP JUMPDEST JUMPDEST DUP2 CALLDATALOAD PUSH2 0x2DAB DUP5 DUP3 PUSH1 0x20 DUP7 ADD PUSH2 0x2D44 JUMP JUMPDEST SWAP2 POP POP SWAP3 SWAP2 POP POP JUMP JUMPDEST PUSH1 0x0 DUP1 PUSH1 0x0 DUP1 PUSH1 0x80 DUP6 DUP8 SUB SLT ISZERO PUSH2 0x2DCE JUMPI PUSH2 0x2DCD PUSH2 0x2887 JUMP JUMPDEST JUMPDEST PUSH1 0x0 PUSH2 0x2DDC DUP8 DUP3 DUP9 ADD PUSH2 0x2AD4 JUMP JUMPDEST SWAP5 POP POP PUSH1 0x20 PUSH2 0x2DED DUP8 DUP3 DUP9 ADD PUSH2 0x2AD4 JUMP JUMPDEST SWAP4 POP POP PUSH1 0x40 PUSH2 0x2DFE DUP8 DUP3 DUP9 ADD PUSH2 0x2A1F JUMP JUMPDEST SWAP3 POP POP PUSH1 0x60 DUP6 ADD CALLDATALOAD PUSH8 0xFFFFFFFFFFFFFFFF DUP2 GT ISZERO PUSH2 0x2E1F JUMPI PUSH2 0x2E1E PUSH2 0x288C JUMP JUMPDEST JUMPDEST PUSH2 0x2E2B DUP8 DUP3 DUP9 ADD PUSH2 0x2D86 JUMP JUMPDEST SWAP2 POP POP SWAP3 SWAP6 SWAP2 SWAP5 POP SWAP3 POP JUMP JUMPDEST PUSH1 0x0 DUP1 REVERT JUMPDEST PUSH1 0x0 DUP1 REVERT JUMPDEST PUSH1 0x0 DUP1 DUP4 PUSH1 0x1F DUP5 ADD SLT PUSH2 0x2E57 JUMPI PUSH2 0x2E56 PUSH2 0x2C7F JUMP JUMPDEST JUMPDEST DUP3 CALLDATALOAD SWAP1 POP PUSH8 0xFFFFFFFFFFFFFFFF DUP2 GT ISZERO PUSH2 0x2E74 JUMPI PUSH2 0x2E73 PUSH2 0x2E37 JUMP JUMPDEST JUMPDEST PUSH1 0x20 DUP4 ADD SWAP2 POP DUP4 PUSH1 0x20 DUP3 MUL DUP4 ADD GT ISZERO PUSH2 0x2E90 JUMPI PUSH2 0x2E8F PUSH2 0x2E3C JUMP JUMPDEST JUMPDEST SWAP3 POP SWAP3 SWAP1 POP JUMP JUMPDEST PUSH1 0x0 DUP1 PUSH1 0x20 DUP4 DUP6 SUB SLT ISZERO PUSH2 0x2EAE JUMPI PUSH2 0x2EAD PUSH2 0x2887 JUMP JUMPDEST JUMPDEST PUSH1 0x0 DUP4 ADD CALLDATALOAD PUSH8 0xFFFFFFFFFFFFFFFF DUP2 GT ISZERO PUSH2 0x2ECC JUMPI PUSH2 0x2ECB PUSH2 0x288C JUMP JUMPDEST JUMPDEST PUSH2 0x2ED8 DUP6 DUP3 DUP7 ADD PUSH2 0x2E41 JUMP JUMPDEST SWAP3 POP SWAP3 POP POP SWAP3 POP SWAP3 SWAP1 POP JUMP JUMPDEST PUSH1 0x0 DUP1 PUSH1 0x40 DUP4 DUP6 SUB SLT ISZERO PUSH2 0x2EFB JUMPI PUSH2 0x2EFA PUSH2 0x2887 JUMP JUMPDEST JUMPDEST PUSH1 0x0 PUSH2 0x2F09 DUP6 DUP3 DUP7 ADD PUSH2 0x2AD4 JUMP JUMPDEST SWAP3 POP POP PUSH1 0x20 PUSH2 0x2F1A DUP6 DUP3 DUP7 ADD PUSH2 0x2AD4 JUMP JUMPDEST SWAP2 POP POP SWAP3 POP SWAP3 SWAP1 POP JUMP JUMPDEST PUSH32 0x4E487B7100000000000000000000000000000000000000000000000000000000 PUSH1 0x0 MSTORE PUSH1 0x22 PUSH1 0x4 MSTORE PUSH1 0x24 PUSH1 0x0 REVERT JUMPDEST PUSH1 0x0 PUSH1 0x2 DUP3 DIV SWAP1 POP PUSH1 0x1 DUP3 AND DUP1 PUSH2 0x2F6B JUMPI PUSH1 0x7F DUP3 AND SWAP2 POP JUMPDEST PUSH1 0x20 DUP3 LT DUP2 SUB PUSH2 0x2F7E JUMPI PUSH2 0x2F7D PUSH2 0x2F24 JUMP JUMPDEST JUMPDEST POP SWAP2 SWAP1 POP JUMP JUMPDEST PUSH32 0x4552433732313A20617070726F76616C20746F2063757272656E74206F776E65 PUSH1 0x0 DUP3 ADD MSTORE PUSH32 0x7200000000000000000000000000000000000000000000000000000000000000 PUSH1 0x20 DUP3 ADD MSTORE POP JUMP JUMPDEST PUSH1 0x0 PUSH2 0x2FE0 PUSH1 0x21 DUP4 PUSH2 0x2957 JUMP JUMPDEST SWAP2 POP PUSH2 0x2FEB DUP3 PUSH2 0x2F84 JUMP JUMPDEST PUSH1 0x40 DUP3 ADD SWAP1 POP SWAP2 SWAP1 POP JUMP JUMPDEST PUSH1 0x0 PUSH1 0x20 DUP3 ADD SWAP1 POP DUP2 DUP2 SUB PUSH1 0x0 DUP4 ADD MSTORE PUSH2 0x300F DUP2 PUSH2 0x2FD3 JUMP JUMPDEST SWAP1 POP SWAP2 SWAP1 POP JUMP JUMPDEST PUSH32 0x4552433732313A20617070726F76652063616C6C6572206973206E6F7420746F PUSH1 0x0 DUP3 ADD MSTORE PUSH32 0x6B656E206F776E6572206F7220617070726F76656420666F7220616C6C000000 PUSH1 0x20 DUP3 ADD MSTORE POP JUMP JUMPDEST PUSH1 0x0 PUSH2 0x3072 PUSH1 0x3D DUP4 PUSH2 0x2957 JUMP JUMPDEST SWAP2 POP PUSH2 0x307D DUP3 PUSH2 0x3016 JUMP JUMPDEST PUSH1 0x40 DUP3 ADD SWAP1 POP SWAP2 SWAP1 POP JUMP JUMPDEST PUSH1 0x0 PUSH1 0x20 DUP3 ADD SWAP1 POP DUP2 DUP2 SUB PUSH1 0x0 DUP4 ADD MSTORE PUSH2 0x30A1 DUP2 PUSH2 0x3065 JUMP JUMPDEST SWAP1 POP SWAP2 SWAP1 POP JUMP JUMPDEST PUSH32 0x796F752068617665206E6F7420656E6F7567682066756E647300000000000000 PUSH1 0x0 DUP3 ADD MSTORE POP JUMP JUMPDEST PUSH1 0x0 PUSH2 0x30DE PUSH1 0x19 DUP4 PUSH2 0x2957 JUMP JUMPDEST SWAP2 POP PUSH2 0x30E9 DUP3 PUSH2 0x30A8 JUMP JUMPDEST PUSH1 0x20 DUP3 ADD SWAP1 POP SWAP2 SWAP1 POP JUMP JUMPDEST PUSH1 0x0 PUSH1 0x20 DUP3 ADD SWAP1 POP DUP2 DUP2 SUB PUSH1 0x0 DUP4 ADD MSTORE PUSH2 0x310D DUP2 PUSH2 0x30D1 JUMP JUMPDEST SWAP1 POP SWAP2 SWAP1 POP JUMP JUMPDEST PUSH32 0x416C6C6F774C697374206D696E74206973206E6F74206F70656E000000000000 PUSH1 0x0 DUP3 ADD MSTORE POP JUMP JUMPDEST PUSH1 0x0 PUSH2 0x314A PUSH1 0x1A DUP4 PUSH2 0x2957 JUMP JUMPDEST SWAP2 POP PUSH2 0x3155 DUP3 PUSH2 0x3114 JUMP JUMPDEST PUSH1 0x20 DUP3 ADD SWAP1 POP SWAP2 SWAP1 POP JUMP JUMPDEST PUSH1 0x0 PUSH1 0x20 DUP3 ADD SWAP1 POP DUP2 DUP2 SUB PUSH1 0x0 DUP4 ADD MSTORE PUSH2 0x3179 DUP2 PUSH2 0x313D JUMP JUMPDEST SWAP1 POP SWAP2 SWAP1 POP JUMP JUMPDEST PUSH32 0x796F7520617265206E6F7420696E20616C6C6F776C6973740000000000000000 PUSH1 0x0 DUP3 ADD MSTORE POP JUMP JUMPDEST PUSH1 0x0 PUSH2 0x31B6 PUSH1 0x18 DUP4 PUSH2 0x2957 JUMP JUMPDEST SWAP2 POP PUSH2 0x31C1 DUP3 PUSH2 0x3180 JUMP JUMPDEST PUSH1 0x20 DUP3 ADD SWAP1 POP SWAP2 SWAP1 POP JUMP JUMPDEST PUSH1 0x0 PUSH1 0x20 DUP3 ADD SWAP1 POP DUP2 DUP2 SUB PUSH1 0x0 DUP4 ADD MSTORE PUSH2 0x31E5 DUP2 PUSH2 0x31A9 JUMP JUMPDEST SWAP1 POP SWAP2 SWAP1 POP JUMP JUMPDEST PUSH32 0x4552433732313A2063616C6C6572206973206E6F7420746F6B656E206F776E65 PUSH1 0x0 DUP3 ADD MSTORE PUSH32 0x72206F7220617070726F76656400000000000000000000000000000000000000 PUSH1 0x20 DUP3 ADD MSTORE POP JUMP JUMPDEST PUSH1 0x0 PUSH2 0x3248 PUSH1 0x2D DUP4 PUSH2 0x2957 JUMP JUMPDEST SWAP2 POP PUSH2 0x3253 DUP3 PUSH2 0x31EC JUMP JUMPDEST PUSH1 0x40 DUP3 ADD SWAP1 POP SWAP2 SWAP1 POP JUMP JUMPDEST PUSH1 0x0 PUSH1 0x20 DUP3 ADD SWAP1 POP DUP2 DUP2 SUB PUSH1 0x0 DUP4 ADD MSTORE PUSH2 0x3277 DUP2 PUSH2 0x323B JUMP JUMPDEST SWAP1 POP SWAP2 SWAP1 POP JUMP JUMPDEST PUSH32 0x455243373231456E756D657261626C653A206F776E657220696E646578206F75 PUSH1 0x0 DUP3 ADD MSTORE PUSH32 0x74206F6620626F756E6473000000000000000000000000000000000000000000 PUSH1 0x20 DUP3 ADD MSTORE POP JUMP JUMPDEST PUSH1 0x0 PUSH2 0x32DA PUSH1 0x2B DUP4 PUSH2 0x2957 JUMP JUMPDEST SWAP2 POP PUSH2 0x32E5 DUP3 PUSH2 0x327E JUMP JUMPDEST PUSH1 0x40 DUP3 ADD SWAP1 POP SWAP2 SWAP1 POP JUMP JUMPDEST PUSH1 0x0 PUSH1 0x20 DUP3 ADD SWAP1 POP DUP2 DUP2 SUB PUSH1 0x0 DUP4 ADD MSTORE PUSH2 0x3309 DUP2 PUSH2 0x32CD JUMP JUMPDEST SWAP1 POP SWAP2 SWAP1 POP JUMP JUMPDEST PUSH32 0x455243373231456E756D657261626C653A20676C6F62616C20696E646578206F PUSH1 0x0 DUP3 ADD MSTORE PUSH32 0x7574206F6620626F756E64730000000000000000000000000000000000000000 PUSH1 0x20 DUP3 ADD MSTORE POP JUMP JUMPDEST PUSH1 0x0 PUSH2 0x336C PUSH1 0x2C DUP4 PUSH2 0x2957 JUMP JUMPDEST SWAP2 POP PUSH2 0x3377 DUP3 PUSH2 0x3310 JUMP JUMPDEST PUSH1 0x40 DUP3 ADD SWAP1 POP SWAP2 SWAP1 POP JUMP JUMPDEST PUSH1 0x0 PUSH1 0x20 DUP3 ADD SWAP1 POP DUP2 DUP2 SUB PUSH1 0x0 DUP4 ADD MSTORE PUSH2 0x339B DUP2 PUSH2 0x335F JUMP JUMPDEST SWAP1 POP SWAP2 SWAP1 POP JUMP JUMPDEST PUSH32 0x4E487B7100000000000000000000000000000000000000000000000000000000 PUSH1 0x0 MSTORE PUSH1 0x32 PUSH1 0x4 MSTORE PUSH1 0x24 PUSH1 0x0 REVERT JUMPDEST PUSH32 0x4552433732313A20696E76616C696420746F6B656E2049440000000000000000 PUSH1 0x0 DUP3 ADD MSTORE POP JUMP JUMPDEST PUSH1 0x0 PUSH2 0x3407 PUSH1 0x18 DUP4 PUSH2 0x2957 JUMP JUMPDEST SWAP2 POP PUSH2 0x3412 DUP3 PUSH2 0x33D1 JUMP JUMPDEST PUSH1 0x20 DUP3 ADD SWAP1 POP SWAP2 SWAP1 POP JUMP JUMPDEST PUSH1 0x0 PUSH1 0x20 DUP3 ADD SWAP1 POP DUP2 DUP2 SUB PUSH1 0x0 DUP4 ADD MSTORE PUSH2 0x3436 DUP2 PUSH2 0x33FA JUMP JUMPDEST SWAP1 POP SWAP2 SWAP1 POP JUMP JUMPDEST PUSH32 0x4552433732313A2061646472657373207A65726F206973206E6F742061207661 PUSH1 0x0 DUP3 ADD MSTORE PUSH32 0x6C6964206F776E65720000000000000000000000000000000000000000000000 PUSH1 0x20 DUP3 ADD MSTORE POP JUMP JUMPDEST PUSH1 0x0 PUSH2 0x3499 PUSH1 0x29 DUP4 PUSH2 0x2957 JUMP JUMPDEST SWAP2 POP PUSH2 0x34A4 DUP3 PUSH2 0x343D JUMP JUMPDEST PUSH1 0x40 DUP3 ADD SWAP1 POP SWAP2 SWAP1 POP JUMP JUMPDEST PUSH1 0x0 PUSH1 0x20 DUP3 ADD SWAP1 POP DUP2 DUP2 SUB PUSH1 0x0 DUP4 ADD MSTORE PUSH2 0x34C8 DUP2 PUSH2 0x348C JUMP JUMPDEST SWAP1 POP SWAP2 SWAP1 POP JUMP JUMPDEST PUSH1 0x0 DUP2 SWAP1 POP SWAP3 SWAP2 POP POP JUMP JUMPDEST PUSH1 0x0 PUSH2 0x34E5 DUP3 PUSH2 0x294C JUMP JUMPDEST PUSH2 0x34EF DUP2 DUP6 PUSH2 0x34CF JUMP JUMPDEST SWAP4 POP PUSH2 0x34FF DUP2 DUP6 PUSH1 0x20 DUP7 ADD PUSH2 0x2968 JUMP JUMPDEST DUP1 DUP5 ADD SWAP2 POP POP SWAP3 SWAP2 POP POP JUMP JUMPDEST PUSH1 0x0 PUSH2 0x3517 DUP3 DUP6 PUSH2 0x34DA JUMP JUMPDEST SWAP2 POP PUSH2 0x3523 DUP3 DUP5 PUSH2 0x34DA JUMP JUMPDEST SWAP2 POP DUP2 SWAP1 POP SWAP4 SWAP3 POP POP POP JUMP JUMPDEST PUSH32 0x4E487B7100000000000000000000000000000000000000000000000000000000 PUSH1 0x0 MSTORE PUSH1 0x11 PUSH1 0x4 MSTORE PUSH1 0x24 PUSH1 0x0 REVERT JUMPDEST PUSH1 0x0 PUSH2 0x3569 DUP3 PUSH2 0x29FE JUMP JUMPDEST SWAP2 POP PUSH32 0xFFFFFFFFFFFFFFFFFFFFFFFFFFFFFFFFFFFFFFFFFFFFFFFFFFFFFFFFFFFFFFFF DUP3 SUB PUSH2 0x359B JUMPI PUSH2 0x359A PUSH2 0x352F JUMP JUMPDEST JUMPDEST PUSH1 0x1 DUP3 ADD SWAP1 POP SWAP2 SWAP1 POP JUMP JUMPDEST PUSH32 0x4F776E61626C653A206E6577206F776E657220697320746865207A65726F2061 PUSH1 0x0 DUP3 ADD MSTORE PUSH32 0x6464726573730000000000000000000000000000000000000000000000000000 PUSH1 0x20 DUP3 ADD MSTORE POP JUMP JUMPDEST PUSH1 0x0 PUSH2 0x3602 PUSH1 0x26 DUP4 PUSH2 0x2957 JUMP JUMPDEST SWAP2 POP PUSH2 0x360D DUP3 PUSH2 0x35A6 JUMP JUMPDEST PUSH1 0x40 DUP3 ADD SWAP1 POP SWAP2 SWAP1 POP JUMP JUMPDEST PUSH1 0x0 PUSH1 0x20 DUP3 ADD SWAP1 POP DUP2 DUP2 SUB PUSH1 0x0 DUP4 ADD MSTORE PUSH2 0x3631 DUP2 PUSH2 0x35F5 JUMP JUMPDEST SWAP1 POP SWAP2 SWAP1 POP JUMP JUMPDEST PUSH32 0x77652061726520736F6C64206F75740000000000000000000000000000000000 PUSH1 0x0 DUP3 ADD MSTORE POP JUMP JUMPDEST PUSH1 0x0 PUSH2 0x366E PUSH1 0xF DUP4 PUSH2 0x2957 JUMP JUMPDEST SWAP2 POP PUSH2 0x3679 DUP3 PUSH2 0x3638 JUMP JUMPDEST PUSH1 0x20 DUP3 ADD SWAP1 POP SWAP2 SWAP1 POP JUMP JUMPDEST PUSH1 0x0 PUSH1 0x20 DUP3 ADD SWAP1 POP DUP2 DUP2 SUB PUSH1 0x0 DUP4 ADD MSTORE PUSH2 0x369D DUP2 PUSH2 0x3661 JUMP JUMPDEST SWAP1 POP SWAP2 SWAP1 POP JUMP JUMPDEST PUSH32 0x4552433732313A207472616E736665722066726F6D20696E636F727265637420 PUSH1 0x0 DUP3 ADD MSTORE PUSH32 0x6F776E6572000000000000000000000000000000000000000000000000000000 PUSH1 0x20 DUP3 ADD MSTORE POP JUMP JUMPDEST PUSH1 0x0 PUSH2 0x3700 PUSH1 0x25 DUP4 PUSH2 0x2957 JUMP JUMPDEST SWAP2 POP PUSH2 0x370B DUP3 PUSH2 0x36A4 JUMP JUMPDEST PUSH1 0x40 DUP3 ADD SWAP1 POP SWAP2 SWAP1 POP JUMP JUMPDEST PUSH1 0x0 PUSH1 0x20 DUP3 ADD SWAP1 POP DUP2 DUP2 SUB PUSH1 0x0 DUP4 ADD MSTORE PUSH2 0x372F DUP2 PUSH2 0x36F3 JUMP JUMPDEST SWAP1 POP SWAP2 SWAP1 POP JUMP JUMPDEST PUSH32 0x4552433732313A207472616E7366657220746F20746865207A65726F20616464 PUSH1 0x0 DUP3 ADD MSTORE PUSH32 0x7265737300000000000000000000000000000000000000000000000000000000 PUSH1 0x20 DUP3 ADD MSTORE POP JUMP JUMPDEST PUSH1 0x0 PUSH2 0x3792 PUSH1 0x24 DUP4 PUSH2 0x2957 JUMP JUMPDEST SWAP2 POP PUSH2 0x379D DUP3 PUSH2 0x3736 JUMP JUMPDEST PUSH1 0x40 DUP3 ADD SWAP1 POP SWAP2 SWAP1 POP JUMP JUMPDEST PUSH1 0x0 PUSH1 0x20 DUP3 ADD SWAP1 POP DUP2 DUP2 SUB PUSH1 0x0 DUP4 ADD MSTORE PUSH2 0x37C1 DUP2 PUSH2 0x3785 JUMP JUMPDEST SWAP1 POP SWAP2 SWAP1 POP JUMP JUMPDEST PUSH32 0x4F776E61626C653A2063616C6C6572206973206E6F7420746865206F776E6572 PUSH1 0x0 DUP3 ADD MSTORE POP JUMP JUMPDEST PUSH1 0x0 PUSH2 0x37FE PUSH1 0x20 DUP4 PUSH2 0x2957 JUMP JUMPDEST SWAP2 POP PUSH2 0x3809 DUP3 PUSH2 0x37C8 JUMP JUMPDEST PUSH1 0x20 DUP3 ADD SWAP1 POP SWAP2 SWAP1 POP JUMP JUMPDEST PUSH1 0x0 PUSH1 0x20 DUP3 ADD SWAP1 POP DUP2 DUP2 SUB PUSH1 0x0 DUP4 ADD MSTORE PUSH2 0x382D DUP2 PUSH2 0x37F1 JUMP JUMPDEST SWAP1 POP SWAP2 SWAP1 POP JUMP JUMPDEST PUSH32 0x4552433732313A20617070726F766520746F2063616C6C657200000000000000 PUSH1 0x0 DUP3 ADD MSTORE POP JUMP JUMPDEST PUSH1 0x0 PUSH2 0x386A PUSH1 0x19 DUP4 PUSH2 0x2957 JUMP JUMPDEST SWAP2 POP PUSH2 0x3875 DUP3 PUSH2 0x3834 JUMP JUMPDEST PUSH1 0x20 DUP3 ADD SWAP1 POP SWAP2 SWAP1 POP JUMP JUMPDEST PUSH1 0x0 PUSH1 0x20 DUP3 ADD SWAP1 POP DUP2 DUP2 SUB PUSH1 0x0 DUP4 ADD MSTORE PUSH2 0x3899 DUP2 PUSH2 0x385D JUMP JUMPDEST SWAP1 POP SWAP2 SWAP1 POP JUMP JUMPDEST PUSH32 0x4552433732313A207472616E7366657220746F206E6F6E204552433732315265 PUSH1 0x0 DUP3 ADD MSTORE PUSH32 0x63656976657220696D706C656D656E7465720000000000000000000000000000 PUSH1 0x20 DUP3 ADD MSTORE POP JUMP JUMPDEST PUSH1 0x0 PUSH2 0x38FC PUSH1 0x32 DUP4 PUSH2 0x2957 JUMP JUMPDEST SWAP2 POP PUSH2 0x3907 DUP3 PUSH2 0x38A0 JUMP JUMPDEST PUSH1 0x40 DUP3 ADD SWAP1 POP SWAP2 SWAP1 POP JUMP JUMPDEST PUSH1 0x0 PUSH1 0x20 DUP3 ADD SWAP1 POP DUP2 DUP2 SUB PUSH1 0x0 DUP4 ADD MSTORE PUSH2 0x392B DUP2 PUSH2 0x38EF JUMP JUMPDEST SWAP1 POP SWAP2 SWAP1 POP JUMP JUMPDEST PUSH32 0x4E487B7100000000000000000000000000000000000000000000000000000000 PUSH1 0x0 MSTORE PUSH1 0x12 PUSH1 0x4 MSTORE PUSH1 0x24 PUSH1 0x0 REVERT JUMPDEST PUSH32 0x5061757361626C653A206E6F7420706175736564000000000000000000000000 PUSH1 0x0 DUP3 ADD MSTORE POP JUMP JUMPDEST PUSH1 0x0 PUSH2 0x3997 PUSH1 0x14 DUP4 PUSH2 0x2957 JUMP JUMPDEST SWAP2 POP PUSH2 0x39A2 DUP3 PUSH2 0x3961 JUMP JUMPDEST PUSH1 0x20 DUP3 ADD SWAP1 POP SWAP2 SWAP1 POP JUMP JUMPDEST PUSH1 0x0 PUSH1 0x20 DUP3 ADD SWAP1 POP DUP2 DUP2 SUB PUSH1 0x0 DUP4 ADD MSTORE PUSH2 0x39C6 DUP2 PUSH2 0x398A JUMP JUMPDEST SWAP1 POP SWAP2 SWAP1 POP JUMP JUMPDEST PUSH32 0x5061757361626C653A2070617573656400000000000000000000000000000000 PUSH1 0x0 DUP3 ADD MSTORE POP JUMP JUMPDEST PUSH1 0x0 PUSH2 0x3A03 PUSH1 0x10 DUP4 PUSH2 0x2957 JUMP JUMPDEST SWAP2 POP PUSH2 0x3A0E DUP3 PUSH2 0x39CD JUMP JUMPDEST PUSH1 0x20 DUP3 ADD SWAP1 POP SWAP2 SWAP1 POP JUMP JUMPDEST PUSH1 0x0 PUSH1 0x20 DUP3 ADD SWAP1 POP DUP2 DUP2 SUB PUSH1 0x0 DUP4 ADD MSTORE PUSH2 0x3A32 DUP2 PUSH2 0x39F6 JUMP JUMPDEST SWAP1 POP SWAP2 SWAP1 POP JUMP JUMPDEST PUSH1 0x0 DUP2 MLOAD SWAP1 POP SWAP2 SWAP1 POP JUMP JUMPDEST PUSH1 0x0 DUP3 DUP3 MSTORE PUSH1 0x20 DUP3 ADD SWAP1 POP SWAP3 SWAP2 POP POP JUMP JUMPDEST PUSH1 0x0 PUSH2 0x3A60 DUP3 PUSH2 0x3A39 JUMP JUMPDEST PUSH2 0x3A6A DUP2 DUP6 PUSH2 0x3A44 JUMP JUMPDEST SWAP4 POP PUSH2 0x3A7A DUP2 DUP6 PUSH1 0x20 DUP7 ADD PUSH2 0x2968 JUMP JUMPDEST PUSH2 0x3A83 DUP2 PUSH2 0x2992 JUMP JUMPDEST DUP5 ADD SWAP2 POP POP SWAP3 SWAP2 POP POP JUMP JUMPDEST PUSH1 0x0 PUSH1 0x80 DUP3 ADD SWAP1 POP PUSH2 0x3AA3 PUSH1 0x0 DUP4 ADD DUP8 PUSH2 0x2A93 JUMP JUMPDEST PUSH2 0x3AB0 PUSH1 0x20 DUP4 ADD DUP7 PUSH2 0x2A93 JUMP JUMPDEST PUSH2 0x3ABD PUSH1 0x40 DUP4 ADD DUP6 PUSH2 0x2B29 JUMP JUMPDEST DUP2 DUP2 SUB PUSH1 0x60 DUP4 ADD MSTORE PUSH2 0x3ACF DUP2 DUP5 PUSH2 0x3A55 JUMP JUMPDEST SWAP1 POP SWAP6 SWAP5 POP POP POP POP POP JUMP JUMPDEST PUSH1 0x0 DUP2 MLOAD SWAP1 POP PUSH2 0x3AE9 DUP2 PUSH2 0x28BD JUMP JUMPDEST SWAP3 SWAP2 POP POP JUMP JUMPDEST PUSH1 0x0 PUSH1 0x20 DUP3 DUP5 SUB SLT ISZERO PUSH2 0x3B05 JUMPI PUSH2 0x3B04 PUSH2 0x2887 JUMP JUMPDEST JUMPDEST PUSH1 0x0 PUSH2 0x3B13 DUP5 DUP3 DUP6 ADD PUSH2 0x3ADA JUMP JUMPDEST SWAP2 POP POP SWAP3 SWAP2 POP POP JUMP JUMPDEST PUSH32 0x455243373231456E756D657261626C653A20636F6E7365637574697665207472 PUSH1 0x0 DUP3 ADD MSTORE PUSH32 0x616E7366657273206E6F7420737570706F727465640000000000000000000000 PUSH1 0x20 DUP3 ADD MSTORE POP JUMP JUMPDEST PUSH1 0x0 PUSH2 0x3B78 PUSH1 0x35 DUP4 PUSH2 0x2957 JUMP JUMPDEST SWAP2 POP PUSH2 0x3B83 DUP3 PUSH2 0x3B1C JUMP JUMPDEST PUSH1 0x40 DUP3 ADD SWAP1 POP SWAP2 SWAP1 POP JUMP JUMPDEST PUSH1 0x0 PUSH1 0x20 DUP3 ADD SWAP1 POP DUP2 DUP2 SUB PUSH1 0x0 DUP4 ADD MSTORE PUSH2 0x3BA7 DUP2 PUSH2 0x3B6B JUMP JUMPDEST SWAP1 POP SWAP2 SWAP1 POP JUMP JUMPDEST PUSH32 0x4552433732313A206D696E7420746F20746865207A65726F2061646472657373 PUSH1 0x0 DUP3 ADD MSTORE POP JUMP JUMPDEST PUSH1 0x0 PUSH2 0x3BE4 PUSH1 0x20 DUP4 PUSH2 0x2957 JUMP JUMPDEST SWAP2 POP PUSH2 0x3BEF DUP3 PUSH2 0x3BAE JUMP JUMPDEST PUSH1 0x20 DUP3 ADD SWAP1 POP SWAP2 SWAP1 POP JUMP JUMPDEST PUSH1 0x0 PUSH1 0x20 DUP3 ADD SWAP1 POP DUP2 DUP2 SUB PUSH1 0x0 DUP4 ADD MSTORE PUSH2 0x3C13 DUP2 PUSH2 0x3BD7 JUMP JUMPDEST SWAP1 POP SWAP2 SWAP1 POP JUMP JUMPDEST PUSH32 0x4552433732313A20746F6B656E20616C7265616479206D696E74656400000000 PUSH1 0x0 DUP3 ADD MSTORE POP JUMP JUMPDEST PUSH1 0x0 PUSH2 0x3C50 PUSH1 0x1C DUP4 PUSH2 0x2957 JUMP JUMPDEST SWAP2 POP PUSH2 0x3C5B DUP3 PUSH2 0x3C1A JUMP JUMPDEST PUSH1 0x20 DUP3 ADD SWAP1 POP SWAP2 SWAP1 POP JUMP JUMPDEST PUSH1 0x0 PUSH1 0x20 DUP3 ADD SWAP1 POP DUP2 DUP2 SUB PUSH1 0x0 DUP4 ADD MSTORE PUSH2 0x3C7F DUP2 PUSH2 0x3C43 JUMP JUMPDEST SWAP1 POP SWAP2 SWAP1 POP JUMP JUMPDEST PUSH1 0x0 PUSH2 0x3C91 DUP3 PUSH2 0x29FE JUMP JUMPDEST SWAP2 POP PUSH2 0x3C9C DUP4 PUSH2 0x29FE JUMP JUMPDEST SWAP3 POP DUP3 DUP3 SUB SWAP1 POP DUP2 DUP2 GT ISZERO PUSH2 0x3CB4 JUMPI PUSH2 0x3CB3 PUSH2 0x352F JUMP JUMPDEST JUMPDEST SWAP3 SWAP2 POP POP JUMP JUMPDEST PUSH32 0x4E487B7100000000000000000000000000000000000000000000000000000000 PUSH1 0x0 MSTORE PUSH1 0x31 PUSH1 0x4 MSTORE PUSH1 0x24 PUSH1 0x0 REVERT INVALID PUSH10 0x7066733A2F2F516D5935 PUSH19 0x507147544E31725A784D516732417069535A63 CALLDATACOPY 0x4A PUSH10 0x424E73317279447A5850 GAS PUSH17 0x5168433169626D2FA26469706673582212 KECCAK256 0xF7 0xE6 PUSH18 0xF94A0B110BA13DAB69EBF72F8A6DCD16C83F 0xC7 0x2E STATICCALL SWAP6 0x4A DUP11 CODECOPY 0xA7 SWAP9 0xD4 MSTORE PUSH5 0x736F6C6343 STOP ADDMOD SLT STOP CALLER "
		},
		"gasEstimates": {
			"creation": {
				"codeDepositCost": "3140200",
				"executionCost": "infinite",
				"totalCost": "infinite"
			},
			"external": {
				"allowListMint()": "infinite",
				"allowlist(address)": "2912",
				"approve(address,uint256)": "infinite",
				"balanceOf(address)": "2944",
				"editMintWindow(bool,bool)": "infinite",
				"getApproved(uint256)": "5323",
				"isApprovedForAll(address,address)": "infinite",
				"name()": "infinite",
				"owner()": "2639",
				"ownerOf(uint256)": "3045",
				"pause()": "infinite",
				"paused()": "2590",
				"populateAllowList(address[])": "infinite",
				"publicMint()": "infinite",
				"renounceOwnership()": "30638",
				"safeTransferFrom(address,address,uint256)": "infinite",
				"safeTransferFrom(address,address,uint256,bytes)": "infinite",
				"setApprovalForAll(address,bool)": "infinite",
				"supportsInterface(bytes4)": "952",
				"symbol()": "infinite",
				"tokenByIndex(uint256)": "infinite",
				"tokenOfOwnerByIndex(address,uint256)": "infinite",
				"tokenURI(uint256)": "infinite",
				"totalSupply()": "2535",
				"transferFrom(address,address,uint256)": "infinite",
				"transferOwnership(address)": "31004",
				"unpause()": "infinite",
				"withdraw(address)": "infinite"
			},
			"internal": {
				"_baseURI()": "infinite",
				"_beforeTokenTransfer(address,address,uint256,uint256)": "infinite",
				"internalmint()": "infinite"
			}
		},
		"methodIdentifiers": {
			"allowListMint()": "102a6a73",
			"allowlist(address)": "a7cd52cb",
			"approve(address,uint256)": "095ea7b3",
			"balanceOf(address)": "70a08231",
			"editMintWindow(bool,bool)": "90ce7254",
			"getApproved(uint256)": "081812fc",
			"isApprovedForAll(address,address)": "e985e9c5",
			"name()": "06fdde03",
			"owner()": "8da5cb5b",
			"ownerOf(uint256)": "6352211e",
			"pause()": "8456cb59",
			"paused()": "5c975abb",
			"populateAllowList(address[])": "d7949118",
			"publicMint()": "26092b83",
			"renounceOwnership()": "715018a6",
			"safeTransferFrom(address,address,uint256)": "42842e0e",
			"safeTransferFrom(address,address,uint256,bytes)": "b88d4fde",
			"setApprovalForAll(address,bool)": "a22cb465",
			"supportsInterface(bytes4)": "01ffc9a7",
			"symbol()": "95d89b41",
			"tokenByIndex(uint256)": "4f6ccce7",
			"tokenOfOwnerByIndex(address,uint256)": "2f745c59",
			"tokenURI(uint256)": "c87b56dd",
			"totalSupply()": "18160ddd",
			"transferFrom(address,address,uint256)": "23b872dd",
			"transferOwnership(address)": "f2fde38b",
			"unpause()": "3f4ba83a",
			"withdraw(address)": "51cff8d9"
		}
	},
	"abi": [
		{
			"inputs": [],
			"stateMutability": "nonpayable",
			"type": "constructor"
		},
		{
			"anonymous": false,
			"inputs": [
				{
					"indexed": true,
					"internalType": "address",
					"name": "owner",
					"type": "address"
				},
				{
					"indexed": true,
					"internalType": "address",
					"name": "approved",
					"type": "address"
				},
				{
					"indexed": true,
					"internalType": "uint256",
					"name": "tokenId",
					"type": "uint256"
				}
			],
			"name": "Approval",
			"type": "event"
		},
		{
			"anonymous": false,
			"inputs": [
				{
					"indexed": true,
					"internalType": "address",
					"name": "owner",
					"type": "address"
				},
				{
					"indexed": true,
					"internalType": "address",
					"name": "operator",
					"type": "address"
				},
				{
					"indexed": false,
					"internalType": "bool",
					"name": "approved",
					"type": "bool"
				}
			],
			"name": "ApprovalForAll",
			"type": "event"
		},
		{
			"anonymous": false,
			"inputs": [
				{
					"indexed": true,
					"internalType": "address",
					"name": "previousOwner",
					"type": "address"
				},
				{
					"indexed": true,
					"internalType": "address",
					"name": "newOwner",
					"type": "address"
				}
			],
			"name": "OwnershipTransferred",
			"type": "event"
		},
		{
			"anonymous": false,
			"inputs": [
				{
					"indexed": false,
					"internalType": "address",
					"name": "account",
					"type": "address"
				}
			],
			"name": "Paused",
			"type": "event"
		},
		{
			"anonymous": false,
			"inputs": [
				{
					"indexed": true,
					"internalType": "address",
					"name": "from",
					"type": "address"
				},
				{
					"indexed": true,
					"internalType": "address",
					"name": "to",
					"type": "address"
				},
				{
					"indexed": true,
					"internalType": "uint256",
					"name": "tokenId",
					"type": "uint256"
				}
			],
			"name": "Transfer",
			"type": "event"
		},
		{
			"anonymous": false,
			"inputs": [
				{
					"indexed": false,
					"internalType": "address",
					"name": "account",
					"type": "address"
				}
			],
			"name": "Unpaused",
			"type": "event"
		},
		{
			"inputs": [],
			"name": "allowListMint",
			"outputs": [],
			"stateMutability": "payable",
			"type": "function"
		},
		{
			"inputs": [
				{
					"internalType": "address",
					"name": "",
					"type": "address"
				}
			],
			"name": "allowlist",
			"outputs": [
				{
					"internalType": "bool",
					"name": "",
					"type": "bool"
				}
			],
			"stateMutability": "view",
			"type": "function"
		},
		{
			"inputs": [
				{
					"internalType": "address",
					"name": "to",
					"type": "address"
				},
				{
					"internalType": "uint256",
					"name": "tokenId",
					"type": "uint256"
				}
			],
			"name": "approve",
			"outputs": [],
			"stateMutability": "nonpayable",
			"type": "function"
		},
		{
			"inputs": [
				{
					"internalType": "address",
					"name": "owner",
					"type": "address"
				}
			],
			"name": "balanceOf",
			"outputs": [
				{
					"internalType": "uint256",
					"name": "",
					"type": "uint256"
				}
			],
			"stateMutability": "view",
			"type": "function"
		},
		{
			"inputs": [
				{
					"internalType": "bool",
					"name": "_publicMintOpen",
					"type": "bool"
				},
				{
					"internalType": "bool",
					"name": "_AllowlistOpen",
					"type": "bool"
				}
			],
			"name": "editMintWindow",
			"outputs": [],
			"stateMutability": "nonpayable",
			"type": "function"
		},
		{
			"inputs": [
				{
					"internalType": "uint256",
					"name": "tokenId",
					"type": "uint256"
				}
			],
			"name": "getApproved",
			"outputs": [
				{
					"internalType": "address",
					"name": "",
					"type": "address"
				}
			],
			"stateMutability": "view",
			"type": "function"
		},
		{
			"inputs": [
				{
					"internalType": "address",
					"name": "owner",
					"type": "address"
				},
				{
					"internalType": "address",
					"name": "operator",
					"type": "address"
				}
			],
			"name": "isApprovedForAll",
			"outputs": [
				{
					"internalType": "bool",
					"name": "",
					"type": "bool"
				}
			],
			"stateMutability": "view",
			"type": "function"
		},
		{
			"inputs": [],
			"name": "name",
			"outputs": [
				{
					"internalType": "string",
					"name": "",
					"type": "string"
				}
			],
			"stateMutability": "view",
			"type": "function"
		},
		{
			"inputs": [],
			"name": "owner",
			"outputs": [
				{
					"internalType": "address",
					"name": "",
					"type": "address"
				}
			],
			"stateMutability": "view",
			"type": "function"
		},
		{
			"inputs": [
				{
					"internalType": "uint256",
					"name": "tokenId",
					"type": "uint256"
				}
			],
			"name": "ownerOf",
			"outputs": [
				{
					"internalType": "address",
					"name": "",
					"type": "address"
				}
			],
			"stateMutability": "view",
			"type": "function"
		},
		{
			"inputs": [],
			"name": "pause",
			"outputs": [],
			"stateMutability": "nonpayable",
			"type": "function"
		},
		{
			"inputs": [],
			"name": "paused",
			"outputs": [
				{
					"internalType": "bool",
					"name": "",
					"type": "bool"
				}
			],
			"stateMutability": "view",
			"type": "function"
		},
		{
			"inputs": [
				{
					"internalType": "address[]",
					"name": "addresses",
					"type": "address[]"
				}
			],
			"name": "populateAllowList",
			"outputs": [],
			"stateMutability": "nonpayable",
			"type": "function"
		},
		{
			"inputs": [],
			"name": "publicMint",
			"outputs": [],
			"stateMutability": "payable",
			"type": "function"
		},
		{
			"inputs": [],
			"name": "renounceOwnership",
			"outputs": [],
			"stateMutability": "nonpayable",
			"type": "function"
		},
		{
			"inputs": [
				{
					"internalType": "address",
					"name": "from",
					"type": "address"
				},
				{
					"internalType": "address",
					"name": "to",
					"type": "address"
				},
				{
					"internalType": "uint256",
					"name": "tokenId",
					"type": "uint256"
				}
			],
			"name": "safeTransferFrom",
			"outputs": [],
			"stateMutability": "nonpayable",
			"type": "function"
		},
		{
			"inputs": [
				{
					"internalType": "address",
					"name": "from",
					"type": "address"
				},
				{
					"internalType": "address",
					"name": "to",
					"type": "address"
				},
				{
					"internalType": "uint256",
					"name": "tokenId",
					"type": "uint256"
				},
				{
					"internalType": "bytes",
					"name": "data",
					"type": "bytes"
				}
			],
			"name": "safeTransferFrom",
			"outputs": [],
			"stateMutability": "nonpayable",
			"type": "function"
		},
		{
			"inputs": [
				{
					"internalType": "address",
					"name": "operator",
					"type": "address"
				},
				{
					"internalType": "bool",
					"name": "approved",
					"type": "bool"
				}
			],
			"name": "setApprovalForAll",
			"outputs": [],
			"stateMutability": "nonpayable",
			"type": "function"
		},
		{
			"inputs": [
				{
					"internalType": "bytes4",
					"name": "interfaceId",
					"type": "bytes4"
				}
			],
			"name": "supportsInterface",
			"outputs": [
				{
					"internalType": "bool",
					"name": "",
					"type": "bool"
				}
			],
			"stateMutability": "view",
			"type": "function"
		},
		{
			"inputs": [],
			"name": "symbol",
			"outputs": [
				{
					"internalType": "string",
					"name": "",
					"type": "string"
				}
			],
			"stateMutability": "view",
			"type": "function"
		},
		{
			"inputs": [
				{
					"internalType": "uint256",
					"name": "index",
					"type": "uint256"
				}
			],
			"name": "tokenByIndex",
			"outputs": [
				{
					"internalType": "uint256",
					"name": "",
					"type": "uint256"
				}
			],
			"stateMutability": "view",
			"type": "function"
		},
		{
			"inputs": [
				{
					"internalType": "address",
					"name": "owner",
					"type": "address"
				},
				{
					"internalType": "uint256",
					"name": "index",
					"type": "uint256"
				}
			],
			"name": "tokenOfOwnerByIndex",
			"outputs": [
				{
					"internalType": "uint256",
					"name": "",
					"type": "uint256"
				}
			],
			"stateMutability": "view",
			"type": "function"
		},
		{
			"inputs": [
				{
					"internalType": "uint256",
					"name": "tokenId",
					"type": "uint256"
				}
			],
			"name": "tokenURI",
			"outputs": [
				{
					"internalType": "string",
					"name": "",
					"type": "string"
				}
			],
			"stateMutability": "view",
			"type": "function"
		},
		{
			"inputs": [],
			"name": "totalSupply",
			"outputs": [
				{
					"internalType": "uint256",
					"name": "",
					"type": "uint256"
				}
			],
			"stateMutability": "view",
			"type": "function"
		},
		{
			"inputs": [
				{
					"internalType": "address",
					"name": "from",
					"type": "address"
				},
				{
					"internalType": "address",
					"name": "to",
					"type": "address"
				},
				{
					"internalType": "uint256",
					"name": "tokenId",
					"type": "uint256"
				}
			],
			"name": "transferFrom",
			"outputs": [],
			"stateMutability": "nonpayable",
			"type": "function"
		},
		{
			"inputs": [
				{
					"internalType": "address",
					"name": "newOwner",
					"type": "address"
				}
			],
			"name": "transferOwnership",
			"outputs": [],
			"stateMutability": "nonpayable",
			"type": "function"
		},
		{
			"inputs": [],
			"name": "unpause",
			"outputs": [],
			"stateMutability": "nonpayable",
			"type": "function"
		},
		{
			"inputs": [
				{
					"internalType": "address",
					"name": "_addr",
					"type": "address"
				}
			],
			"name": "withdraw",
			"outputs": [],
			"stateMutability": "nonpayable",
			"type": "function"
		}
	]
}